{
  "contractName": "CnsController",
  "abi": [
    {
      "constant": true,
      "inputs": [],
      "name": "provider",
      "outputs": [
        {
          "name": "",
          "type": "address"
        }
      ],
      "payable": false,
      "stateMutability": "view",
      "type": "function"
    },
    {
      "constant": true,
      "inputs": [],
      "name": "isVersionContract",
      "outputs": [
        {
          "name": "",
          "type": "bool"
        }
      ],
      "payable": false,
      "stateMutability": "view",
      "type": "function"
    },
    {
      "constant": true,
      "inputs": [],
      "name": "isVersionLogic",
      "outputs": [
        {
          "name": "",
          "type": "bool"
        }
      ],
      "payable": false,
      "stateMutability": "view",
      "type": "function"
    },
    {
      "constant": true,
      "inputs": [],
      "name": "contractName",
      "outputs": [
        {
          "name": "",
          "type": "bytes32"
        }
      ],
      "payable": false,
      "stateMutability": "view",
      "type": "function"
    },
    {
      "constant": true,
      "inputs": [],
      "name": "isVersionContractOrLogic",
      "outputs": [
        {
          "name": "",
          "type": "bool"
        }
      ],
      "payable": false,
      "stateMutability": "view",
      "type": "function"
    },
    {
      "constant": true,
      "inputs": [],
      "name": "cns",
      "outputs": [
        {
          "name": "",
          "type": "address"
        }
      ],
      "payable": false,
      "stateMutability": "view",
      "type": "function"
    },
    {
      "constant": true,
      "inputs": [],
      "name": "getContractName",
      "outputs": [
        {
          "name": "",
          "type": "bytes32"
        }
      ],
      "payable": false,
      "stateMutability": "view",
      "type": "function"
    },
    {
      "constant": true,
      "inputs": [],
      "name": "getCns",
      "outputs": [
        {
          "name": "",
          "type": "address"
        }
      ],
      "payable": false,
      "stateMutability": "view",
      "type": "function"
    },
    {
      "inputs": [
        {
          "name": "_cns",
          "type": "address"
        },
        {
          "name": "_contractName",
          "type": "bytes32"
        }
      ],
      "payable": false,
      "stateMutability": "nonpayable",
      "type": "constructor"
    }
  ],
  "bytecode": "0x6060604052336000806101000a81548173ffffffffffffffffffffffffffffffffffffffff021916908373ffffffffffffffffffffffffffffffffffffffff160217905550341561004f57600080fd5b6040516040806107e18339810160405280805190602001909190805190602001909190505081600160006101000a81548173ffffffffffffffffffffffffffffffffffffffff021916908373ffffffffffffffffffffffffffffffffffffffff16021790555080600281600019169055505050610710806100d16000396000f30060606040526004361061008e576000357c0100000000000000000000000000000000000000000000000000000000900463ffffffff168063085d488314610093578063360aa28b146100e857806354a6ff681461011557806375d0c0dc14610142578063beff90dc14610173578063f1c248b1146101a0578063f5f5ba72146101f5578063f9b2b19a14610226575b600080fd5b341561009e57600080fd5b6100a661027b565b604051808273ffffffffffffffffffffffffffffffffffffffff1673ffffffffffffffffffffffffffffffffffffffff16815260200191505060405180910390f35b34156100f357600080fd5b6100fb6102a0565b604051808215151515815260200191505060405180910390f35b341561012057600080fd5b610128610399565b604051808215151515815260200191505060405180910390f35b341561014d57600080fd5b610155610492565b60405180826000191660001916815260200191505060405180910390f35b341561017e57600080fd5b610186610498565b604051808215151515815260200191505060405180910390f35b34156101ab57600080fd5b6101b361068a565b604051808273ffffffffffffffffffffffffffffffffffffffff1673ffffffffffffffffffffffffffffffffffffffff16815260200191505060405180910390f35b341561020057600080fd5b6102086106b0565b60405180826000191660001916815260200191505060405180910390f35b341561023157600080fd5b6102396106ba565b604051808273ffffffffffffffffffffffffffffffffffffffff1673ffffffffffffffffffffffffffffffffffffffff16815260200191505060405180910390f35b6000809054906101000a900473ffffffffffffffffffffffffffffffffffffffff1681565b6000600160009054906101000a900473ffffffffffffffffffffffffffffffffffffffff1673ffffffffffffffffffffffffffffffffffffffff1663062af37d336002546000604051602001526040518363ffffffff167c0100000000000000000000000000000000000000000000000000000000028152600401808373ffffffffffffffffffffffffffffffffffffffff1673ffffffffffffffffffffffffffffffffffffffff168152602001826000191660001916815260200192505050602060405180830381600087803b151561037957600080fd5b6102c65a03f1151561038a57600080fd5b50505060405180519050905090565b6000600160009054906101000a900473ffffffffffffffffffffffffffffffffffffffff1673ffffffffffffffffffffffffffffffffffffffff166320cad613336002546000604051602001526040518363ffffffff167c0100000000000000000000000000000000000000000000000000000000028152600401808373ffffffffffffffffffffffffffffffffffffffff1673ffffffffffffffffffffffffffffffffffffffff168152602001826000191660001916815260200192505050602060405180830381600087803b151561047257600080fd5b6102c65a03f1151561048357600080fd5b50505060405180519050905090565b60025481565b6000600160009054906101000a900473ffffffffffffffffffffffffffffffffffffffff1673ffffffffffffffffffffffffffffffffffffffff1663062af37d336002546000604051602001526040518363ffffffff167c0100000000000000000000000000000000000000000000000000000000028152600401808373ffffffffffffffffffffffffffffffffffffffff1673ffffffffffffffffffffffffffffffffffffffff168152602001826000191660001916815260200192505050602060405180830381600087803b151561057157600080fd5b6102c65a03f1151561058257600080fd5b50505060405180519050806106855750600160009054906101000a900473ffffffffffffffffffffffffffffffffffffffff1673ffffffffffffffffffffffffffffffffffffffff166320cad613336002546000604051602001526040518363ffffffff167c0100000000000000000000000000000000000000000000000000000000028152600401808373ffffffffffffffffffffffffffffffffffffffff1673ffffffffffffffffffffffffffffffffffffffff168152602001826000191660001916815260200192505050602060405180830381600087803b151561066957600080fd5b6102c65a03f1151561067a57600080fd5b505050604051805190505b905090565b600160009054906101000a900473ffffffffffffffffffffffffffffffffffffffff1681565b6000600254905090565b6000600160009054906101000a900473ffffffffffffffffffffffffffffffffffffffff169050905600a165627a7a723058203c86c7887faa82ed7d68a70d73738cb2cc23f0f0f840c2a3697f3d4081b261f70029",
  "source": "pragma solidity ^0.4.2;\n\nimport \"./ContractNameService.sol\";\n\ncontract CnsController {\n    address public provider = msg.sender;\n    ContractNameService public cns;\n    bytes32 public contractName;\n\n    modifier onlyByProvider() {\n        if (msg.sender != provider) throw;\n        _;\n    }\n\n    modifier onlyByVersionContract() {\n        if (!isVersionContract()) throw;\n        _;\n    }\n\n    modifier onlyByVersionLogic() {\n        if (!isVersionLogic()) throw;\n        _;\n    }\n\n    modifier onlyByVersionContractOrLogic() {\n        if (!isVersionContractOrLogic()) throw;\n        _;\n    }\n\n    function CnsController(ContractNameService _cns, bytes32 _contractName) {\n        cns = _cns;\n        contractName = _contractName;\n    }\n\n    function getCns() constant returns (ContractNameService) {\n        return cns;\n    }\n\n    function getContractName() constant returns (bytes32) {\n        return contractName;\n    }\n\n    function isVersionContract() constant returns (bool) {\n        return cns.isVersionContract(msg.sender, contractName);\n    }\n\n    function isVersionLogic() constant returns (bool) {\n        return cns.isVersionLogic(msg.sender, contractName);\n    }\n\n    function isVersionContractOrLogic() constant returns (bool) {\n        return cns.isVersionContract(msg.sender, contractName) || cns.isVersionLogic(msg.sender, contractName);\n    }\n}",
  "sourcePath": "/home/shijinraj/ethereum/DIFA/oss-kyc/gmo/contracts/CnsController.sol",
  "compiler": {
    "name": "solc",
    "version": "0.4.18+commit.9cf6e910.Emscripten.clang"
  },
  "schemaVersion": "1.0.1",
  "updatedAt": "2017-12-15T14:30:32.887Z"
}