{
  "contractName": "Organizations",
  "abi": [
    {
      "constant": false,
      "inputs": [
        {
          "name": "_addr",
          "type": "address"
        }
      ],
      "name": "removeMember",
      "outputs": [
        {
          "name": "",
          "type": "bool"
        }
      ],
      "payable": false,
      "stateMutability": "nonpayable",
      "type": "function"
    },
    {
      "constant": false,
      "inputs": [
        {
          "name": "_organizationKey",
          "type": "bytes32"
        }
      ],
      "name": "createOrganization",
      "outputs": [
        {
          "name": "",
          "type": "bool"
        }
      ],
      "payable": false,
      "stateMutability": "nonpayable",
      "type": "function"
    },
    {
      "constant": false,
      "inputs": [
        {
          "name": "_addr",
          "type": "address"
        }
      ],
      "name": "removeAdmin",
      "outputs": [
        {
          "name": "",
          "type": "bool"
        }
      ],
      "payable": false,
      "stateMutability": "nonpayable",
      "type": "function"
    },
    {
      "constant": true,
      "inputs": [
        {
          "name": "_addr",
          "type": "address"
        }
      ],
      "name": "isAdmin",
      "outputs": [
        {
          "name": "",
          "type": "bool"
        }
      ],
      "payable": false,
      "stateMutability": "view",
      "type": "function"
    },
    {
      "constant": false,
      "inputs": [
        {
          "name": "_addr",
          "type": "address"
        },
        {
          "name": "_nonce",
          "type": "uint256"
        },
        {
          "name": "_sign",
          "type": "bytes"
        }
      ],
      "name": "removeMemberWithSign",
      "outputs": [
        {
          "name": "",
          "type": "bool"
        }
      ],
      "payable": false,
      "stateMutability": "nonpayable",
      "type": "function"
    },
    {
      "constant": true,
      "inputs": [
        {
          "name": "_organizationKey",
          "type": "bytes32"
        }
      ],
      "name": "isActive",
      "outputs": [
        {
          "name": "",
          "type": "bool"
        }
      ],
      "payable": false,
      "stateMutability": "view",
      "type": "function"
    },
    {
      "constant": false,
      "inputs": [
        {
          "name": "_nonce",
          "type": "uint256"
        },
        {
          "name": "_sign",
          "type": "bytes"
        }
      ],
      "name": "changeActivationWithSign",
      "outputs": [
        {
          "name": "",
          "type": "bool"
        }
      ],
      "payable": false,
      "stateMutability": "nonpayable",
      "type": "function"
    },
    {
      "constant": true,
      "inputs": [
        {
          "name": "_functionName",
          "type": "bytes32"
        }
      ],
      "name": "calcEnvHash",
      "outputs": [
        {
          "name": "hash",
          "type": "bytes32"
        }
      ],
      "payable": false,
      "stateMutability": "view",
      "type": "function"
    },
    {
      "constant": false,
      "inputs": [],
      "name": "changeActivation",
      "outputs": [
        {
          "name": "",
          "type": "bool"
        }
      ],
      "payable": false,
      "stateMutability": "nonpayable",
      "type": "function"
    },
    {
      "constant": false,
      "inputs": [
        {
          "name": "_addr",
          "type": "address"
        }
      ],
      "name": "addAdmin",
      "outputs": [
        {
          "name": "",
          "type": "bool"
        }
      ],
      "payable": false,
      "stateMutability": "nonpayable",
      "type": "function"
    },
    {
      "constant": true,
      "inputs": [
        {
          "name": "",
          "type": "address"
        }
      ],
      "name": "nonces",
      "outputs": [
        {
          "name": "",
          "type": "uint256"
        }
      ],
      "payable": false,
      "stateMutability": "view",
      "type": "function"
    },
    {
      "constant": true,
      "inputs": [
        {
          "name": "_addr",
          "type": "address"
        }
      ],
      "name": "isMember",
      "outputs": [
        {
          "name": "",
          "type": "bool"
        }
      ],
      "payable": false,
      "stateMutability": "view",
      "type": "function"
    },
    {
      "constant": false,
      "inputs": [
        {
          "name": "_addr",
          "type": "address"
        },
        {
          "name": "_nonce",
          "type": "uint256"
        },
        {
          "name": "_sign",
          "type": "bytes"
        }
      ],
      "name": "addAdminWithSign",
      "outputs": [
        {
          "name": "",
          "type": "bool"
        }
      ],
      "payable": false,
      "stateMutability": "nonpayable",
      "type": "function"
    },
    {
      "constant": true,
      "inputs": [
        {
          "name": "",
          "type": "bytes32"
        }
      ],
      "name": "organizations",
      "outputs": [
        {
          "name": "created",
          "type": "bool"
        },
        {
          "name": "active",
          "type": "bool"
        },
        {
          "name": "adminCount",
          "type": "uint256"
        }
      ],
      "payable": false,
      "stateMutability": "view",
      "type": "function"
    },
    {
      "constant": true,
      "inputs": [
        {
          "name": "_hash",
          "type": "bytes32"
        },
        {
          "name": "_sign",
          "type": "bytes"
        }
      ],
      "name": "recoverAddress",
      "outputs": [
        {
          "name": "recoverdAddr",
          "type": "address"
        }
      ],
      "payable": false,
      "stateMutability": "view",
      "type": "function"
    },
    {
      "constant": false,
      "inputs": [
        {
          "name": "_addr",
          "type": "address"
        }
      ],
      "name": "addMember",
      "outputs": [
        {
          "name": "",
          "type": "bool"
        }
      ],
      "payable": false,
      "stateMutability": "nonpayable",
      "type": "function"
    },
    {
      "constant": false,
      "inputs": [
        {
          "name": "_addr",
          "type": "address"
        },
        {
          "name": "_nonce",
          "type": "uint256"
        },
        {
          "name": "_sign",
          "type": "bytes"
        }
      ],
      "name": "addMemberWithSign",
      "outputs": [
        {
          "name": "",
          "type": "bool"
        }
      ],
      "payable": false,
      "stateMutability": "nonpayable",
      "type": "function"
    },
    {
      "constant": true,
      "inputs": [
        {
          "name": "",
          "type": "address"
        }
      ],
      "name": "adminOrganizationKeys",
      "outputs": [
        {
          "name": "",
          "type": "bytes32"
        }
      ],
      "payable": false,
      "stateMutability": "view",
      "type": "function"
    },
    {
      "constant": false,
      "inputs": [
        {
          "name": "_addr",
          "type": "address"
        },
        {
          "name": "_nonce",
          "type": "uint256"
        },
        {
          "name": "_sign",
          "type": "bytes"
        }
      ],
      "name": "removeAdminWithSign",
      "outputs": [
        {
          "name": "",
          "type": "bool"
        }
      ],
      "payable": false,
      "stateMutability": "nonpayable",
      "type": "function"
    },
    {
      "constant": false,
      "inputs": [
        {
          "name": "_organizationKey",
          "type": "bytes32"
        },
        {
          "name": "_nonce",
          "type": "uint256"
        },
        {
          "name": "_sign",
          "type": "bytes"
        }
      ],
      "name": "createOrganizationWithSign",
      "outputs": [
        {
          "name": "",
          "type": "bool"
        }
      ],
      "payable": false,
      "stateMutability": "nonpayable",
      "type": "function"
    },
    {
      "constant": true,
      "inputs": [
        {
          "name": "",
          "type": "address"
        }
      ],
      "name": "memberOrganizationKeys",
      "outputs": [
        {
          "name": "",
          "type": "bytes32"
        }
      ],
      "payable": false,
      "stateMutability": "view",
      "type": "function"
    },
    {
      "anonymous": false,
      "inputs": [
        {
          "indexed": true,
          "name": "_organizationKey",
          "type": "bytes32"
        },
        {
          "indexed": false,
          "name": "action",
          "type": "uint8"
        }
      ],
      "name": "OranizationEvent",
      "type": "event"
    },
    {
      "anonymous": false,
      "inputs": [
        {
          "indexed": true,
          "name": "_organizationKey",
          "type": "bytes32"
        },
        {
          "indexed": false,
          "name": "action",
          "type": "uint8"
        },
        {
          "indexed": false,
          "name": "_address",
          "type": "address"
        }
      ],
      "name": "AdminEvent",
      "type": "event"
    },
    {
      "anonymous": false,
      "inputs": [
        {
          "indexed": true,
          "name": "_organizationKey",
          "type": "bytes32"
        },
        {
          "indexed": false,
          "name": "action",
          "type": "uint8"
        },
        {
          "indexed": false,
          "name": "_address",
          "type": "address"
        }
      ],
      "name": "MemberEvent",
      "type": "event"
    }
  ],
  "bytecode": "0x6060604052341561000f57600080fd5b61249a8061001e6000396000f30060606040526004361061011d576000357c0100000000000000000000000000000000000000000000000000000000900463ffffffff1680630b1ca49a1461012257806316ecb6e7146101735780631785f53c146101b257806324d7806c146102035780634e4c0e2d146102545780635c36901c146102f157806363bf24df14610330578063641f83a1146103ae5780636d5bd593146103f1578063704802751461041e5780637ecebe001461046f578063a230c524146104bc578063b93c8dba1461050d578063ba51b14e146105aa578063c655d7aa146105fb578063ca6d56dc146106a5578063caecea08146106f6578063db75898b14610793578063ecacfcbd146107e8578063fc1f0dfe14610885578063ff02d3ed14610910575b600080fd5b341561012d57600080fd5b610159600480803573ffffffffffffffffffffffffffffffffffffffff16906020019091905050610965565b604051808215151515815260200191505060405180910390f35b341561017e57600080fd5b610198600480803560001916906020019091905050610978565b604051808215151515815260200191505060405180910390f35b34156101bd57600080fd5b6101e9600480803573ffffffffffffffffffffffffffffffffffffffff1690602001909190505061098b565b604051808215151515815260200191505060405180910390f35b341561020e57600080fd5b61023a600480803573ffffffffffffffffffffffffffffffffffffffff1690602001909190505061099e565b604051808215151515815260200191505060405180910390f35b341561025f57600080fd5b6102d7600480803573ffffffffffffffffffffffffffffffffffffffff1690602001909190803590602001909190803590602001908201803590602001908080601f01602080910402602001604051908101604052809392919081815260200183838082843782019150505050505091905050610a67565b604051808215151515815260200191505060405180910390f35b34156102fc57600080fd5b610316600480803560001916906020019091905050610be4565b604051808215151515815260200191505060405180910390f35b341561033b57600080fd5b610394600480803590602001909190803590602001908201803590602001908080601f01602080910402602001604051908101604052809392919081815260200183838082843782019150505050505091905050610c18565b604051808215151515815260200191505060405180910390f35b34156103b957600080fd5b6103d3600480803560001916906020019091905050610d30565b60405180826000191660001916815260200191505060405180910390f35b34156103fc57600080fd5b610404610dba565b604051808215151515815260200191505060405180910390f35b341561042957600080fd5b610455600480803573ffffffffffffffffffffffffffffffffffffffff16906020019091905050610dca565b604051808215151515815260200191505060405180910390f35b341561047a57600080fd5b6104a6600480803573ffffffffffffffffffffffffffffffffffffffff16906020019091905050610ddd565b6040518082815260200191505060405180910390f35b34156104c757600080fd5b6104f3600480803573ffffffffffffffffffffffffffffffffffffffff16906020019091905050610df5565b604051808215151515815260200191505060405180910390f35b341561051857600080fd5b610590600480803573ffffffffffffffffffffffffffffffffffffffff1690602001909190803590602001909190803590602001908201803590602001908080601f01602080910402602001604051908101604052809392919081815260200183838082843782019150505050505091905050610ebe565b604051808215151515815260200191505060405180910390f35b34156105b557600080fd5b6105cf60048080356000191690602001909190505061103b565b604051808415151515815260200183151515158152602001828152602001935050505060405180910390f35b341561060657600080fd5b61066360048080356000191690602001909190803590602001908201803590602001908080601f0160208091040260200160405190810160405280939291908181526020018383808284378201915050505050509190505061107f565b604051808273ffffffffffffffffffffffffffffffffffffffff1673ffffffffffffffffffffffffffffffffffffffff16815260200191505060405180910390f35b34156106b057600080fd5b6106dc600480803573ffffffffffffffffffffffffffffffffffffffff1690602001909190505061118f565b604051808215151515815260200191505060405180910390f35b341561070157600080fd5b610779600480803573ffffffffffffffffffffffffffffffffffffffff1690602001909190803590602001909190803590602001908201803590602001908080601f016020809104026020016040519081016040528093929190818152602001838380828437820191505050505050919050506111a2565b604051808215151515815260200191505060405180910390f35b341561079e57600080fd5b6107ca600480803573ffffffffffffffffffffffffffffffffffffffff1690602001909190505061131f565b60405180826000191660001916815260200191505060405180910390f35b34156107f357600080fd5b61086b600480803573ffffffffffffffffffffffffffffffffffffffff1690602001909190803590602001909190803590602001908201803590602001908080601f01602080910402602001604051908101604052809392919081815260200183838082843782019150505050505091905050611337565b604051808215151515815260200191505060405180910390f35b341561089057600080fd5b6108f660048080356000191690602001909190803590602001909190803590602001908201803590602001908080601f016020809104026020016040519081016040528093929190818152602001838380828437820191505050505050919050506114b4565b604051808215151515815260200191505060405180910390f35b341561091b57600080fd5b610947600480803573ffffffffffffffffffffffffffffffffffffffff169060200190919050506115fe565b60405180826000191660001916815260200191505060405180910390f35b60006109713383611616565b9050919050565b60006109843383611809565b9050919050565b60006109973383611a5e565b9050919050565b600080600160008473ffffffffffffffffffffffffffffffffffffffff1673ffffffffffffffffffffffffffffffffffffffff1681526020019081526020016000205490506000600102816000191614158015610a5f5750600080826000191660001916815260200190815260200160002060020160008473ffffffffffffffffffffffffffffffffffffffff1673ffffffffffffffffffffffffffffffffffffffff16815260200190815260200160002060009054906101000a900460ff165b915050919050565b6000806000610a957f72656d6f76654d656d626572576974685369676e000000000000000000000000610d30565b915081866040518083600019166000191681526020018273ffffffffffffffffffffffffffffffffffffffff1673ffffffffffffffffffffffffffffffffffffffff166c01000000000000000000000000028152601401925050506040518091039020915081856040518083600019166000191681526020018281526020019250505060405180910390209150610b2c828561107f565b9050600360008273ffffffffffffffffffffffffffffffffffffffff1673ffffffffffffffffffffffffffffffffffffffff1681526020019081526020016000205485141515610b7f5760009250610bdb565b600360008273ffffffffffffffffffffffffffffffffffffffff1673ffffffffffffffffffffffffffffffffffffffff16815260200190815260200160002060008154809291906001019190505550610bd88187611616565b92505b50509392505050565b6000806000836000191660001916815260200190815260200160002060000160019054906101000a900460ff169050919050565b6000806000610c467f6368616e676541637469766174696f6e576974685369676e0000000000000000610d30565b915081856040518083600019166000191681526020018281526020019250505060405180910390209150610c7a828561107f565b9050600360008273ffffffffffffffffffffffffffffffffffffffff1673ffffffffffffffffffffffffffffffffffffffff1681526020019081526020016000205485141515610ccd5760009250610d28565b600360008273ffffffffffffffffffffffffffffffffffffffff1673ffffffffffffffffffffffffffffffffffffffff16815260200190815260200160002060008154809291906001019190505550610d2581611ca7565b92505b505092915050565b600030604051808273ffffffffffffffffffffffffffffffffffffffff1673ffffffffffffffffffffffffffffffffffffffff166c0100000000000000000000000002815260140191505060405180910390209050808260405180836000191660001916815260200182600019166000191681526020019250505060405180910390209050919050565b6000610dc533611ca7565b905090565b6000610dd63383611de1565b9050919050565b60036020528060005260406000206000915090505481565b600080600260008473ffffffffffffffffffffffffffffffffffffffff1673ffffffffffffffffffffffffffffffffffffffff1681526020019081526020016000205490506000600102816000191614158015610eb65750600080826000191660001916815260200190815260200160002060030160008473ffffffffffffffffffffffffffffffffffffffff1673ffffffffffffffffffffffffffffffffffffffff16815260200190815260200160002060009054906101000a900460ff165b915050919050565b6000806000610eec7f61646441646d696e576974685369676e00000000000000000000000000000000610d30565b915081866040518083600019166000191681526020018273ffffffffffffffffffffffffffffffffffffffff1673ffffffffffffffffffffffffffffffffffffffff166c01000000000000000000000000028152601401925050506040518091039020915081856040518083600019166000191681526020018281526020019250505060405180910390209150610f83828561107f565b9050600360008273ffffffffffffffffffffffffffffffffffffffff1673ffffffffffffffffffffffffffffffffffffffff1681526020019081526020016000205485141515610fd65760009250611032565b600360008273ffffffffffffffffffffffffffffffffffffffff1673ffffffffffffffffffffffffffffffffffffffff1681526020019081526020016000206000815480929190600101919050555061102f8187611de1565b92505b50509392505050565b60006020528060005260406000206000915090508060000160009054906101000a900460ff16908060000160019054906101000a900460ff16908060010154905083565b6000806000806041855114151561109257fe5b6020850151925060408501519150606085015160001a9050601b8160ff1610156110bd57601b810190505b601b8160ff1614806110d25750601c8160ff16145b15156110da57fe5b600186828585604051600081526020016040526000604051602001526040518085600019166000191681526020018460ff1660ff16815260200183600019166000191681526020018260001916600019168152602001945050505050602060405160208103908084039060008661646e5a03f1151561115857600080fd5b505060206040510351935060008473ffffffffffffffffffffffffffffffffffffffff161415151561118657fe5b50505092915050565b600061119b338361213e565b9050919050565b60008060006111d07f6164644d656d626572576974685369676e000000000000000000000000000000610d30565b915081866040518083600019166000191681526020018273ffffffffffffffffffffffffffffffffffffffff1673ffffffffffffffffffffffffffffffffffffffff166c01000000000000000000000000028152601401925050506040518091039020915081856040518083600019166000191681526020018281526020019250505060405180910390209150611267828561107f565b9050600360008273ffffffffffffffffffffffffffffffffffffffff1673ffffffffffffffffffffffffffffffffffffffff16815260200190815260200160002054851415156112ba5760009250611316565b600360008273ffffffffffffffffffffffffffffffffffffffff1673ffffffffffffffffffffffffffffffffffffffff16815260200190815260200160002060008154809291906001019190505550611313818761213e565b92505b50509392505050565b60016020528060005260406000206000915090505481565b60008060006113657f72656d6f766541646d696e576974685369676e00000000000000000000000000610d30565b915081866040518083600019166000191681526020018273ffffffffffffffffffffffffffffffffffffffff1673ffffffffffffffffffffffffffffffffffffffff166c010000000000000000000000000281526014019250505060405180910390209150818560405180836000191660001916815260200182815260200192505050604051809103902091506113fc828561107f565b9050600360008273ffffffffffffffffffffffffffffffffffffffff1673ffffffffffffffffffffffffffffffffffffffff168152602001908152602001600020548514151561144f57600092506114ab565b600360008273ffffffffffffffffffffffffffffffffffffffff1673ffffffffffffffffffffffffffffffffffffffff168152602001908152602001600020600081548092919060010191905055506114a88187611a5e565b92505b50509392505050565b60008060006114e27f6372656174654f7267616e697a6174696f6e576974685369676e000000000000610d30565b915081866040518083600019166000191681526020018260001916600019168152602001925050506040518091039020915081856040518083600019166000191681526020018281526020019250505060405180910390209150611546828561107f565b9050600360008273ffffffffffffffffffffffffffffffffffffffff1673ffffffffffffffffffffffffffffffffffffffff168152602001908152602001600020548514151561159957600092506115f5565b600360008273ffffffffffffffffffffffffffffffffffffffff1673ffffffffffffffffffffffffffffffffffffffff168152602001908152602001600020600081548092919060010191905055506115f28187611809565b92505b50509392505050565b60026020528060005260406000206000915090505481565b600080836116238161099e565b151561162b57fe5b600160008673ffffffffffffffffffffffffffffffffffffffff1673ffffffffffffffffffffffffffffffffffffffff1681526020019081526020016000205491506000600102826000191614806116c957506000600102600260008673ffffffffffffffffffffffffffffffffffffffff1673ffffffffffffffffffffffffffffffffffffffff1681526020019081526020016000205460001916145b806116fc5750600080836000191660001916815260200190815260200160002060000160009054906101000a900460ff16155b1561170a5760009250611801565b81600019167f9007f20fe15053225dd7511d931169c60e21e3464011683b235673abfbc6b9c36001866040518083600181111561174357fe5b60ff1681526020018273ffffffffffffffffffffffffffffffffffffffff1673ffffffffffffffffffffffffffffffffffffffff1681526020019250505060405180910390a26000806000846000191660001916815260200190815260200160002060030160008673ffffffffffffffffffffffffffffffffffffffff1673ffffffffffffffffffffffffffffffffffffffff16815260200190815260200160002060006101000a81548160ff021916908315150217905550600192505b505092915050565b6000806000836000191660001916815260200190815260200160002060000160009054906101000a900460ff16156118445760009050611a58565b81600019167fbe1fc9b256d6cc149f8c493dc495197ac8a151e24b03f2acb1ec924cd21bba5f60006040518082600281111561187c57fe5b60ff16815260200191505060405180910390a281600019167fd625e2e3a9c0aa61c9208fddd98064a1bbc9027823ad17e027d78b2754458d0b600085604051808360018111156118c857fe5b60ff1681526020018273ffffffffffffffffffffffffffffffffffffffff1673ffffffffffffffffffffffffffffffffffffffff1681526020019250505060405180910390a26060604051908101604052806001151581526020016001151581526020016001815250600080846000191660001916815260200190815260200160002060008201518160000160006101000a81548160ff02191690831515021790555060208201518160000160016101000a81548160ff021916908315150217905550604082015181600101559050506001600080846000191660001916815260200190815260200160002060020160008573ffffffffffffffffffffffffffffffffffffffff1673ffffffffffffffffffffffffffffffffffffffff16815260200190815260200160002060006101000a81548160ff02191690831515021790555081600160008573ffffffffffffffffffffffffffffffffffffffff1673ffffffffffffffffffffffffffffffffffffffff1681526020019081526020016000208160001916905550600190505b92915050565b60008083611a6b8161099e565b1515611a7357fe5b600160008673ffffffffffffffffffffffffffffffffffffffff1673ffffffffffffffffffffffffffffffffffffffff168152602001908152602001600020549150600060010282600019161480611b1157506000600102600160008673ffffffffffffffffffffffffffffffffffffffff1673ffffffffffffffffffffffffffffffffffffffff1681526020019081526020016000205460001916145b80611b445750600080836000191660001916815260200190815260200160002060000160009054906101000a900460ff16155b80611b6c57506001600080846000191660001916815260200190815260200160002060010154145b15611b7a5760009250611c9f565b81600019167fd625e2e3a9c0aa61c9208fddd98064a1bbc9027823ad17e027d78b2754458d0b60018660405180836001811115611bb357fe5b60ff1681526020018273ffffffffffffffffffffffffffffffffffffffff1673ffffffffffffffffffffffffffffffffffffffff1681526020019250505060405180910390a2600080836000191660001916815260200190815260200160002060010160008154809291906001900391905055506000806000846000191660001916815260200190815260200160002060020160008673ffffffffffffffffffffffffffffffffffffffff1673ffffffffffffffffffffffffffffffffffffffff16815260200190815260200160002060006101000a81548160ff021916908315150217905550600192505b505092915050565b600080600083611cb68161099e565b1515611cbe57fe5b600160008673ffffffffffffffffffffffffffffffffffffffff1673ffffffffffffffffffffffffffffffffffffffff168152602001908152602001600020549250600060010283600019161415611d195760009350611dd9565b600080846000191660001916815260200190815260200160002060000160019054906101000a900460ff1615915082600019167fbe1fc9b256d6cc149f8c493dc495197ac8a151e24b03f2acb1ec924cd21bba5f83611d79576002611d7c565b60015b60405180826002811115611d8c57fe5b60ff16815260200191505060405180910390a281600080856000191660001916815260200190815260200160002060000160016101000a81548160ff021916908315150217905550600193505b505050919050565b60008083611dee8161099e565b1515611df657fe5b600160008673ffffffffffffffffffffffffffffffffffffffff1673ffffffffffffffffffffffffffffffffffffffff168152602001908152602001600020549150600080836000191660001916815260200190815260200160002060000160009054906101000a900460ff161515611e725760009250612136565b6000600102600160008673ffffffffffffffffffffffffffffffffffffffff1673ffffffffffffffffffffffffffffffffffffffff168152602001908152602001600020546000191614158015611f1057508160001916600160008673ffffffffffffffffffffffffffffffffffffffff1673ffffffffffffffffffffffffffffffffffffffff168152602001908152602001600020546000191614155b15611f1e5760009250612136565b6000600102600260008673ffffffffffffffffffffffffffffffffffffffff1673ffffffffffffffffffffffffffffffffffffffff168152602001908152602001600020546000191614158015611fbc57508160001916600260008673ffffffffffffffffffffffffffffffffffffffff1673ffffffffffffffffffffffffffffffffffffffff168152602001908152602001600020546000191614155b15611fca5760009250612136565b81600019167fd625e2e3a9c0aa61c9208fddd98064a1bbc9027823ad17e027d78b2754458d0b6000866040518083600181111561200357fe5b60ff1681526020018273ffffffffffffffffffffffffffffffffffffffff1673ffffffffffffffffffffffffffffffffffffffff1681526020019250505060405180910390a26000808360001916600019168152602001908152602001600020600101600081548092919060010191905055506001600080846000191660001916815260200190815260200160002060020160008673ffffffffffffffffffffffffffffffffffffffff1673ffffffffffffffffffffffffffffffffffffffff16815260200190815260200160002060006101000a81548160ff02191690831515021790555081600160008673ffffffffffffffffffffffffffffffffffffffff1673ffffffffffffffffffffffffffffffffffffffff1681526020019081526020016000208160001916905550600192505b505092915050565b6000808361214b8161099e565b151561215357fe5b600160008673ffffffffffffffffffffffffffffffffffffffff1673ffffffffffffffffffffffffffffffffffffffff168152602001908152602001600020549150600080836000191660001916815260200190815260200160002060000160009054906101000a900460ff1615156121cf5760009250612466565b6000600102600160008673ffffffffffffffffffffffffffffffffffffffff1673ffffffffffffffffffffffffffffffffffffffff16815260200190815260200160002054600019161415801561226d57508160001916600160008673ffffffffffffffffffffffffffffffffffffffff1673ffffffffffffffffffffffffffffffffffffffff168152602001908152602001600020546000191614155b1561227b5760009250612466565b6000600102600260008673ffffffffffffffffffffffffffffffffffffffff1673ffffffffffffffffffffffffffffffffffffffff16815260200190815260200160002054600019161415801561231957508160001916600260008673ffffffffffffffffffffffffffffffffffffffff1673ffffffffffffffffffffffffffffffffffffffff168152602001908152602001600020546000191614155b156123275760009250612466565b81600019167f9007f20fe15053225dd7511d931169c60e21e3464011683b235673abfbc6b9c36000866040518083600181111561236057fe5b60ff1681526020018273ffffffffffffffffffffffffffffffffffffffff1673ffffffffffffffffffffffffffffffffffffffff1681526020019250505060405180910390a26001600080846000191660001916815260200190815260200160002060030160008673ffffffffffffffffffffffffffffffffffffffff1673ffffffffffffffffffffffffffffffffffffffff16815260200190815260200160002060006101000a81548160ff02191690831515021790555081600260008673ffffffffffffffffffffffffffffffffffffffff1673ffffffffffffffffffffffffffffffffffffffff1681526020019081526020016000208160001916905550600192505b5050929150505600a165627a7a7230582080ec1b9382c7417d36d6abbd4a57f385c5aed832d7ab66d907ab189ee7a8e1c50029",
  "source": "pragma solidity ^0.4.8;\n\ncontract Organizations {\n\n    struct Organization {\n        bool created;\n        bool active;\n        uint adminCount;\n        mapping (address => bool) admins; // admin => bool\n        mapping (address => bool) members; // member => bool\n    }\n\n    mapping (bytes32 => Organization) public organizations; // organizationKey => Organization\n    mapping (address => bytes32) public adminOrganizationKeys; // adminAddress => OrganizationKey\n    mapping (address => bytes32) public memberOrganizationKeys; // memberAddress => OrganizationKey\n\n    // nonce for each account\n    mapping(address => uint) public nonces;\n\n    enum OrganizationAction {\n        Create,\n        Activate,\n        Deactivate\n    }\n\n    enum AccountAction {\n        Add,\n        Remove\n    }\n\n    event OranizationEvent(bytes32 indexed _organizationKey, OrganizationAction action);\n    event AdminEvent(bytes32 indexed _organizationKey, AccountAction action, address _address);\n    event MemberEvent(bytes32 indexed _organizationKey, AccountAction action, address _address);\n\n    /* ----------- modifiers ----------------- */\n\n    modifier onlyByAdmin(address _addr) {\n        assert(isAdmin(_addr));\n        _;\n    }\n\n\n    /* ----------- methods ----------------- */\n\n    function isAdmin(address _addr) constant returns (bool) {\n        bytes32 organizationKey = adminOrganizationKeys[_addr];\n        return organizationKey != 0 && organizations[organizationKey].admins[_addr];\n    }\n\n    function isMember(address _addr) constant returns (bool) {\n        bytes32 organizationKey = memberOrganizationKeys[_addr];\n        return organizationKey != 0 && organizations[organizationKey].members[_addr];\n    }\n\n    function isActive(bytes32 _organizationKey) constant returns (bool) {\n        return organizations[_organizationKey].active;\n    }\n\n    function createOrganization(bytes32 _organizationKey) returns (bool) {\n        return createOrganizationPrivate(msg.sender, _organizationKey);\n    }\n\n    function createOrganizationWithSign(bytes32 _organizationKey, uint _nonce, bytes _sign) returns (bool) {\n        bytes32 hash = calcEnvHash('createOrganizationWithSign');\n        hash = sha3(hash, _organizationKey);\n        hash = sha3(hash, _nonce);\n        address from = recoverAddress(hash, _sign);\n\n        if (_nonce != nonces[from]) return false;\n        nonces[from]++;\n\n        return createOrganizationPrivate(from, _organizationKey);\n    }\n\n    function createOrganizationPrivate(address _from, bytes32 _organizationKey) private returns (bool) {\n        if (organizations[_organizationKey].created) return false;\n        OranizationEvent(_organizationKey, OrganizationAction.Create);\n        AdminEvent(_organizationKey, AccountAction.Add, _from);\n        organizations[_organizationKey] = Organization({created:true, active:true, adminCount:1});\n        organizations[_organizationKey].admins[_from] = true;\n        adminOrganizationKeys[_from] = _organizationKey;\n        return true;\n    }\n\n    /**\n     * change activate by admin\n     */\n    function changeActivation() returns (bool) {\n        return changeActivationPrivate(msg.sender);\n    }\n\n    function changeActivationWithSign(uint _nonce, bytes _sign) returns (bool) {\n        bytes32 hash = calcEnvHash('changeActivationWithSign');\n        hash = sha3(hash, _nonce);\n        address from = recoverAddress(hash, _sign);\n\n        if (_nonce != nonces[from]) return false;\n        nonces[from]++;\n\n        return changeActivationPrivate(from);\n    }\n\n    function changeActivationPrivate(address _from) onlyByAdmin(_from) private returns (bool) {\n        bytes32 organizationKey = adminOrganizationKeys[_from];\n        if (organizationKey == 0) return false;\n        bool changeTo = !organizations[organizationKey].active;\n        OranizationEvent(organizationKey, (changeTo ? OrganizationAction.Activate : OrganizationAction.Deactivate));\n        organizations[organizationKey].active = changeTo;\n        return true;\n    }\n\n    /**\n     * add admin by admin\n     */\n    function addAdmin(address _addr) returns (bool) {\n        return addAdminPrivate(msg.sender, _addr);\n    }\n\n    function addAdminWithSign(address _addr, uint _nonce, bytes _sign) returns (bool) {\n        bytes32 hash = calcEnvHash('addAdminWithSign');\n        hash = sha3(hash, _addr);\n        hash = sha3(hash, _nonce);\n        address from = recoverAddress(hash, _sign);\n\n        if (_nonce != nonces[from]) return false;\n        nonces[from]++;\n\n        return addAdminPrivate(from, _addr);\n    }\n\n    function addAdminPrivate(address _from, address _addr) onlyByAdmin( _from) private returns (bool) {\n        bytes32 organizationKey = adminOrganizationKeys[_from];\n        if (!organizations[organizationKey].created) return false;\n        if (adminOrganizationKeys[_addr] != 0 && adminOrganizationKeys[_addr] != organizationKey) return false;\n        if (memberOrganizationKeys[_addr] != 0 && memberOrganizationKeys[_addr] != organizationKey) return false;\n\n        AdminEvent(organizationKey, AccountAction.Add, _addr);\n        organizations[organizationKey].adminCount++;\n        organizations[organizationKey].admins[_addr] = true;\n        adminOrganizationKeys[_addr] = organizationKey;\n        return true;\n    }\n\n    /**\n     * remove admin by admin\n     */\n    function removeAdmin(address _addr) returns (bool) {\n        return removeAdminPrivate(msg.sender, _addr);\n    }\n\n    function removeAdminWithSign(address _addr, uint _nonce, bytes _sign) returns (bool) {\n        bytes32 hash = calcEnvHash('removeAdminWithSign');\n        hash = sha3(hash, _addr);\n        hash = sha3(hash, _nonce);\n        address from = recoverAddress(hash, _sign);\n\n        if (_nonce != nonces[from]) return false;\n        nonces[from]++;\n\n        return removeAdminPrivate(from, _addr);\n    }\n\n    function removeAdminPrivate(address _from, address _addr) onlyByAdmin(_from) private returns (bool) {\n        bytes32 organizationKey = adminOrganizationKeys[_from];\n        if (organizationKey == 0 || adminOrganizationKeys[_addr] == 0  || !organizations[organizationKey].created || organizations[organizationKey].adminCount == 1) return false;\n        AdminEvent(organizationKey, AccountAction.Remove, _addr);\n        organizations[organizationKey].adminCount--;\n        organizations[organizationKey].admins[_addr] = false;\n        // Because the account do not allow to become another admin or member.\n        // adminOrganizationKeys[_addr] = 0;\n        return true;\n    }\n\n    /**\n     * add member by member\n     */\n    function addMember(address _addr) returns (bool) {\n        return addMemberPrivate(msg.sender, _addr);\n    }\n\n    function addMemberWithSign(address _addr, uint _nonce, bytes _sign) returns (bool) {\n        bytes32 hash = calcEnvHash('addMemberWithSign');\n        hash = sha3(hash, _addr);\n        hash = sha3(hash, _nonce);\n        address from = recoverAddress(hash, _sign);\n\n        if (_nonce != nonces[from]) return false;\n        nonces[from]++;\n\n        return addMemberPrivate(from, _addr);\n    }\n\n    function addMemberPrivate(address _from, address _addr) onlyByAdmin(_from) private returns (bool) {\n        bytes32 organizationKey = adminOrganizationKeys[_from];\n        if (!organizations[organizationKey].created) return false;\n        if (adminOrganizationKeys[_addr] != 0 && adminOrganizationKeys[_addr] != organizationKey) return false;\n        if (memberOrganizationKeys[_addr] != 0 && memberOrganizationKeys[_addr] != organizationKey) return false;\n\n        MemberEvent(organizationKey, AccountAction.Add, _addr);\n        organizations[organizationKey].members[_addr] = true;\n        memberOrganizationKeys[_addr] = organizationKey;\n        return true;\n    }\n\n    /**\n     * remove member by admin\n     */\n    function removeMember(address _addr) returns (bool) {\n        return removeMemberPrivate(msg.sender, _addr);\n    }\n\n    function removeMemberWithSign(address _addr, uint _nonce, bytes _sign) returns (bool) {\n        bytes32 hash = calcEnvHash('removeMemberWithSign');\n        hash = sha3(hash, _addr);\n        hash = sha3(hash, _nonce);\n        address from = recoverAddress(hash, _sign);\n\n        if (_nonce != nonces[from]) return false;\n        nonces[from]++;\n\n        return removeMemberPrivate(from, _addr);\n    }\n\n    function removeMemberPrivate(address _from, address _addr) onlyByAdmin(_from) private returns (bool) {\n        bytes32 organizationKey = adminOrganizationKeys[_from];\n        if (organizationKey == 0 || memberOrganizationKeys[_addr] == 0 || !organizations[organizationKey].created) return false;\n        MemberEvent(organizationKey, AccountAction.Remove, _addr);\n        organizations[organizationKey].members[_addr] = false;\n        // Because the account do not allow to become another admin or member.\n        //memberOrganizationKeys[_addr] = 0;\n        return true;\n    }\n\n    /* ----------- recover address ----------------- */\n\n    function calcEnvHash(bytes32 _functionName) constant returns (bytes32 hash) {\n        hash = sha3(this);\n        hash = sha3(hash, _functionName);\n    }\n\n    function recoverAddress(bytes32 _hash, bytes _sign) constant returns (address recoverdAddr) {\n        bytes32 r;\n        bytes32 s;\n        uint8 v;\n\n        assert(_sign.length == 65);\n\n        assembly {\n            r := mload(add(_sign, 32))\n            s := mload(add(_sign, 64))\n            v := byte(0, mload(add(_sign, 96)))\n        }\n\n        if (v < 27) v += 27;\n        assert(v == 27 || v == 28);\n\n        recoverdAddr = ecrecover(_hash, v, r, s);\n        assert(recoverdAddr != 0);\n    }\n}\n",
  "sourcePath": "/home/shijinraj/ethereum/DIFA/oss-kyc/provider/contracts/Organizations.sol",
  "compiler": {
    "name": "solc",
    "version": "0.4.18+commit.9cf6e910.Emscripten.clang"
  },
  "schemaVersion": "1.0.1",
  "updatedAt": "2017-12-15T14:30:34.252Z"
}