{
  "contractName": "PersonalInformations",
  "abi": [
    {
      "constant": true,
      "inputs": [],
      "name": "organizations",
      "outputs": [
        {
          "name": "",
          "type": "address"
        }
      ],
      "payable": false,
      "stateMutability": "view",
      "type": "function"
    },
    {
      "constant": false,
      "inputs": [
        {
          "name": "_user",
          "type": "address"
        },
        {
          "name": "_dataKey",
          "type": "bytes32"
        },
        {
          "name": "_dataHash",
          "type": "bytes32"
        },
        {
          "name": "_expires",
          "type": "uint256"
        }
      ],
      "name": "update",
      "outputs": [
        {
          "name": "",
          "type": "bool"
        }
      ],
      "payable": false,
      "stateMutability": "nonpayable",
      "type": "function"
    },
    {
      "constant": true,
      "inputs": [
        {
          "name": "_functionName",
          "type": "bytes32"
        }
      ],
      "name": "calcEnvHash",
      "outputs": [
        {
          "name": "hash",
          "type": "bytes32"
        }
      ],
      "payable": false,
      "stateMutability": "view",
      "type": "function"
    },
    {
      "constant": false,
      "inputs": [
        {
          "name": "_user",
          "type": "address"
        },
        {
          "name": "_dataKey",
          "type": "bytes32"
        }
      ],
      "name": "remove",
      "outputs": [
        {
          "name": "",
          "type": "bool"
        }
      ],
      "payable": false,
      "stateMutability": "nonpayable",
      "type": "function"
    },
    {
      "constant": true,
      "inputs": [
        {
          "name": "",
          "type": "address"
        }
      ],
      "name": "nonces",
      "outputs": [
        {
          "name": "",
          "type": "uint256"
        }
      ],
      "payable": false,
      "stateMutability": "view",
      "type": "function"
    },
    {
      "constant": false,
      "inputs": [
        {
          "name": "_user",
          "type": "address"
        },
        {
          "name": "_dataKey",
          "type": "bytes32"
        },
        {
          "name": "_dataHash",
          "type": "bytes32"
        },
        {
          "name": "_expires",
          "type": "uint256"
        },
        {
          "name": "_nonce",
          "type": "uint256"
        },
        {
          "name": "_sign",
          "type": "bytes"
        }
      ],
      "name": "updateWithSign",
      "outputs": [
        {
          "name": "",
          "type": "bool"
        }
      ],
      "payable": false,
      "stateMutability": "nonpayable",
      "type": "function"
    },
    {
      "constant": true,
      "inputs": [
        {
          "name": "_hash",
          "type": "bytes32"
        },
        {
          "name": "_sign",
          "type": "bytes"
        }
      ],
      "name": "recoverAddress",
      "outputs": [
        {
          "name": "recoverdAddr",
          "type": "address"
        }
      ],
      "payable": false,
      "stateMutability": "view",
      "type": "function"
    },
    {
      "constant": false,
      "inputs": [
        {
          "name": "_user",
          "type": "address"
        },
        {
          "name": "_dataKey",
          "type": "bytes32"
        },
        {
          "name": "_dataHash",
          "type": "bytes32"
        },
        {
          "name": "_expires",
          "type": "uint256"
        },
        {
          "name": "_nonce",
          "type": "uint256"
        },
        {
          "name": "_sign",
          "type": "bytes"
        }
      ],
      "name": "createWithSign",
      "outputs": [
        {
          "name": "",
          "type": "bool"
        }
      ],
      "payable": false,
      "stateMutability": "nonpayable",
      "type": "function"
    },
    {
      "constant": true,
      "inputs": [
        {
          "name": "",
          "type": "address"
        },
        {
          "name": "",
          "type": "bytes32"
        },
        {
          "name": "",
          "type": "bytes32"
        }
      ],
      "name": "personalInformations",
      "outputs": [
        {
          "name": "isCreated",
          "type": "bool"
        },
        {
          "name": "dataHash",
          "type": "bytes32"
        },
        {
          "name": "expires",
          "type": "uint256"
        }
      ],
      "payable": false,
      "stateMutability": "view",
      "type": "function"
    },
    {
      "constant": false,
      "inputs": [
        {
          "name": "_user",
          "type": "address"
        },
        {
          "name": "_dataKey",
          "type": "bytes32"
        },
        {
          "name": "_dataHash",
          "type": "bytes32"
        },
        {
          "name": "_expires",
          "type": "uint256"
        }
      ],
      "name": "create",
      "outputs": [
        {
          "name": "",
          "type": "bool"
        }
      ],
      "payable": false,
      "stateMutability": "nonpayable",
      "type": "function"
    },
    {
      "constant": false,
      "inputs": [
        {
          "name": "_user",
          "type": "address"
        },
        {
          "name": "_dataKey",
          "type": "bytes32"
        },
        {
          "name": "_nonce",
          "type": "uint256"
        },
        {
          "name": "_sign",
          "type": "bytes"
        }
      ],
      "name": "removeWithSign",
      "outputs": [
        {
          "name": "",
          "type": "bool"
        }
      ],
      "payable": false,
      "stateMutability": "nonpayable",
      "type": "function"
    },
    {
      "inputs": [
        {
          "name": "_organizations",
          "type": "address"
        }
      ],
      "payable": false,
      "stateMutability": "nonpayable",
      "type": "constructor"
    },
    {
      "anonymous": false,
      "inputs": [
        {
          "indexed": true,
          "name": "user",
          "type": "address"
        },
        {
          "indexed": true,
          "name": "certificationBodyKey",
          "type": "bytes32"
        },
        {
          "indexed": false,
          "name": "dataKey",
          "type": "bytes32"
        },
        {
          "indexed": true,
          "name": "dataHash",
          "type": "bytes32"
        }
      ],
      "name": "SetPersonalInformationsEvent",
      "type": "event"
    }
  ],
  "bytecode": "0x6060604052341561000f57600080fd5b604051602080611f0c8339810160405280805190602001909190505080600160006101000a81548173ffffffffffffffffffffffffffffffffffffffff021916908373ffffffffffffffffffffffffffffffffffffffff16021790555050611e908061007c6000396000f3006060604052600436106100af576000357c0100000000000000000000000000000000000000000000000000000000900463ffffffff168063234db1de146100b45780634a1ab2cf14610109578063641f83a11461017d57806364afab72146101c05780637ecebe001461021e578063bc6ffd0b1461026b578063c655d7aa1461032b578063cf9b8890146103d5578063e1b1206414610495578063e7fb71b814610516578063f3fb67c11461058a575b600080fd5b34156100bf57600080fd5b6100c7610634565b604051808273ffffffffffffffffffffffffffffffffffffffff1673ffffffffffffffffffffffffffffffffffffffff16815260200191505060405180910390f35b341561011457600080fd5b610163600480803573ffffffffffffffffffffffffffffffffffffffff16906020019091908035600019169060200190919080356000191690602001909190803590602001909190505061065a565b604051808215151515815260200191505060405180910390f35b341561018857600080fd5b6101a2600480803560001916906020019091905050610673565b60405180826000191660001916815260200191505060405180910390f35b34156101cb57600080fd5b610204600480803573ffffffffffffffffffffffffffffffffffffffff16906020019091908035600019169060200190919050506106fd565b604051808215151515815260200191505060405180910390f35b341561022957600080fd5b610255600480803573ffffffffffffffffffffffffffffffffffffffff16906020019091905050610712565b6040518082815260200191505060405180910390f35b341561027657600080fd5b610311600480803573ffffffffffffffffffffffffffffffffffffffff16906020019091908035600019169060200190919080356000191690602001909190803590602001909190803590602001909190803590602001908201803590602001908080601f0160208091040260200160405190810160405280939291908181526020018383808284378201915050505050509190505061072a565b604051808215151515815260200191505060405180910390f35b341561033657600080fd5b61039360048080356000191690602001909190803590602001908201803590602001908080601f01602080910402602001604051908101604052809392919081815260200183838082843782019150505050505091905050610935565b604051808273ffffffffffffffffffffffffffffffffffffffff1673ffffffffffffffffffffffffffffffffffffffff16815260200191505060405180910390f35b34156103e057600080fd5b61047b600480803573ffffffffffffffffffffffffffffffffffffffff16906020019091908035600019169060200190919080356000191690602001909190803590602001909190803590602001909190803590602001908201803590602001908080601f01602080910402602001604051908101604052809392919081815260200183838082843782019150505050505091905050610a45565b604051808215151515815260200191505060405180910390f35b34156104a057600080fd5b6104e6600480803573ffffffffffffffffffffffffffffffffffffffff169060200190919080356000191690602001909190803560001916906020019091905050610c50565b60405180841515151581526020018360001916600019168152602001828152602001935050505060405180910390f35b341561052157600080fd5b610570600480803573ffffffffffffffffffffffffffffffffffffffff169060200190919080356000191690602001909190803560001916906020019091908035906020019091905050610ca1565b604051808215151515815260200191505060405180910390f35b341561059557600080fd5b61061a600480803573ffffffffffffffffffffffffffffffffffffffff169060200190919080356000191690602001909190803590602001909190803590602001908201803590602001908080601f01602080910402602001604051908101604052809392919081815260200183838082843782019150505050505091905050610cba565b604051808215151515815260200191505060405180910390f35b600160009054906101000a900473ffffffffffffffffffffffffffffffffffffffff1681565b60006106693386868686610e69565b9050949350505050565b600030604051808273ffffffffffffffffffffffffffffffffffffffff1673ffffffffffffffffffffffffffffffffffffffff166c0100000000000000000000000002815260140191505060405180910390209050808260405180836000191660001916815260200182600019166000191681526020019250505060405180910390209050919050565b600061070a3384846113d4565b905092915050565b60026020528060005260406000206000915090505481565b60008060006107587f757064617465576974685369676e000000000000000000000000000000000000610673565b915081896040518083600019166000191681526020018273ffffffffffffffffffffffffffffffffffffffff1673ffffffffffffffffffffffffffffffffffffffff166c01000000000000000000000000028152601401925050506040518091039020915081886040518083600019166000191681526020018260001916600019168152602001925050506040518091039020915081876040518083600019166000191681526020018260001916600019168152602001925050506040518091039020915081866040518083600019166000191681526020018281526020019250505060405180910390209150818560405180836000191660001916815260200182815260200192505050604051809103902091506108778285610935565b9050600260008273ffffffffffffffffffffffffffffffffffffffff1673ffffffffffffffffffffffffffffffffffffffff16815260200190815260200160002054851415156108ca5760009250610929565b600260008273ffffffffffffffffffffffffffffffffffffffff1673ffffffffffffffffffffffffffffffffffffffff16815260200190815260200160002060008154809291906001019190505550610926818a8a8a8a610e69565b92505b50509695505050505050565b6000806000806041855114151561094857fe5b6020850151925060408501519150606085015160001a9050601b8160ff16101561097357601b810190505b601b8160ff1614806109885750601c8160ff16145b151561099057fe5b600186828585604051600081526020016040526000604051602001526040518085600019166000191681526020018460ff1660ff16815260200183600019166000191681526020018260001916600019168152602001945050505050602060405160208103908084039060008661646e5a03f11515610a0e57600080fd5b505060206040510351935060008473ffffffffffffffffffffffffffffffffffffffff1614151515610a3c57fe5b50505092915050565b6000806000610a737f637265617465576974685369676e000000000000000000000000000000000000610673565b915081896040518083600019166000191681526020018273ffffffffffffffffffffffffffffffffffffffff1673ffffffffffffffffffffffffffffffffffffffff166c0100000000000000000000000002815260140192505050604051809103902091508188604051808360001916600019168152602001826000191660001916815260200192505050604051809103902091508187604051808360001916600019168152602001826000191660001916815260200192505050604051809103902091508186604051808360001916600019168152602001828152602001925050506040518091039020915081856040518083600019166000191681526020018281526020019250505060405180910390209150610b928285610935565b9050600260008273ffffffffffffffffffffffffffffffffffffffff1673ffffffffffffffffffffffffffffffffffffffff1681526020019081526020016000205485141515610be55760009250610c44565b600260008273ffffffffffffffffffffffffffffffffffffffff1673ffffffffffffffffffffffffffffffffffffffff16815260200190815260200160002060008154809291906001019190505550610c41818a8a8a8a61191e565b92505b50509695505050505050565b600060205282600052604060002060205281600052604060002060205280600052604060002060009250925050508060000160009054906101000a900460ff16908060010154908060020154905083565b6000610cb0338686868661191e565b9050949350505050565b6000806000610ce87f72656d6f7665576974685369676e000000000000000000000000000000000000610673565b915081876040518083600019166000191681526020018273ffffffffffffffffffffffffffffffffffffffff1673ffffffffffffffffffffffffffffffffffffffff166c01000000000000000000000000028152601401925050506040518091039020915081866040518083600019166000191681526020018260001916600019168152602001925050506040518091039020915081856040518083600019166000191681526020018281526020019250505060405180910390209150610daf8285610935565b9050600260008273ffffffffffffffffffffffffffffffffffffffff1673ffffffffffffffffffffffffffffffffffffffff1681526020019081526020016000205485141515610e025760009250610e5f565b600260008273ffffffffffffffffffffffffffffffffffffffff1673ffffffffffffffffffffffffffffffffffffffff16815260200190815260200160002060008154809291906001019190505550610e5c8188886113d4565b92505b5050949350505050565b600080866000600160009054906101000a900473ffffffffffffffffffffffffffffffffffffffff1673ffffffffffffffffffffffffffffffffffffffff1663ff02d3ed836000604051602001526040518263ffffffff167c0100000000000000000000000000000000000000000000000000000000028152600401808273ffffffffffffffffffffffffffffffffffffffff1673ffffffffffffffffffffffffffffffffffffffff168152602001915050602060405180830381600087803b1515610f3457600080fd5b6102c65a03f11515610f4557600080fd5b505050604051805190509050600160009054906101000a900473ffffffffffffffffffffffffffffffffffffffff1673ffffffffffffffffffffffffffffffffffffffff1663a230c524836000604051602001526040518263ffffffff167c0100000000000000000000000000000000000000000000000000000000028152600401808273ffffffffffffffffffffffffffffffffffffffff1673ffffffffffffffffffffffffffffffffffffffff168152602001915050602060405180830381600087803b151561101657600080fd5b6102c65a03f1151561102757600080fd5b5050506040518051905080156110f55750600160009054906101000a900473ffffffffffffffffffffffffffffffffffffffff1673ffffffffffffffffffffffffffffffffffffffff16635c36901c826000604051602001526040518263ffffffff167c0100000000000000000000000000000000000000000000000000000000028152600401808260001916600019168152602001915050602060405180830381600087803b15156110d957600080fd5b6102c65a03f115156110ea57600080fd5b505050604051805190505b15156110fd57fe5b600160009054906101000a900473ffffffffffffffffffffffffffffffffffffffff1673ffffffffffffffffffffffffffffffffffffffff1663ff02d3ed8a6000604051602001526040518263ffffffff167c0100000000000000000000000000000000000000000000000000000000028152600401808273ffffffffffffffffffffffffffffffffffffffff1673ffffffffffffffffffffffffffffffffffffffff168152602001915050602060405180830381600087803b15156111c257600080fd5b6102c65a03f115156111d357600080fd5b5050506040518051905092506000808973ffffffffffffffffffffffffffffffffffffffff1673ffffffffffffffffffffffffffffffffffffffff168152602001908152602001600020600084600019166000191681526020019081526020016000206000886000191660001916815260200190815260200160002060000160009054906101000a900460ff16151561126f57600093506113c8565b856000808a73ffffffffffffffffffffffffffffffffffffffff1673ffffffffffffffffffffffffffffffffffffffff16815260200190815260200160002060008560001916600019168152602001908152602001600020600089600019166000191681526020019081526020016000206001018160001916905550846000808a73ffffffffffffffffffffffffffffffffffffffff1673ffffffffffffffffffffffffffffffffffffffff168152602001908152602001600020600085600019166000191681526020019081526020016000206000896000191660001916815260200190815260200160002060020181905550856000191683600019168973ffffffffffffffffffffffffffffffffffffffff167fdba97f1ad590d32fe3b3b426489dfb3320e42c58e2d03e575e61483dc9e758c88a60405180826000191660001916815260200191505060405180910390a4600193505b50505095945050505050565b600080846000600160009054906101000a900473ffffffffffffffffffffffffffffffffffffffff1673ffffffffffffffffffffffffffffffffffffffff1663ff02d3ed836000604051602001526040518263ffffffff167c0100000000000000000000000000000000000000000000000000000000028152600401808273ffffffffffffffffffffffffffffffffffffffff1673ffffffffffffffffffffffffffffffffffffffff168152602001915050602060405180830381600087803b151561149f57600080fd5b6102c65a03f115156114b057600080fd5b505050604051805190509050600160009054906101000a900473ffffffffffffffffffffffffffffffffffffffff1673ffffffffffffffffffffffffffffffffffffffff1663a230c524836000604051602001526040518263ffffffff167c0100000000000000000000000000000000000000000000000000000000028152600401808273ffffffffffffffffffffffffffffffffffffffff1673ffffffffffffffffffffffffffffffffffffffff168152602001915050602060405180830381600087803b151561158157600080fd5b6102c65a03f1151561159257600080fd5b5050506040518051905080156116605750600160009054906101000a900473ffffffffffffffffffffffffffffffffffffffff1673ffffffffffffffffffffffffffffffffffffffff16635c36901c826000604051602001526040518263ffffffff167c0100000000000000000000000000000000000000000000000000000000028152600401808260001916600019168152602001915050602060405180830381600087803b151561164457600080fd5b6102c65a03f1151561165557600080fd5b505050604051805190505b151561166857fe5b600160009054906101000a900473ffffffffffffffffffffffffffffffffffffffff1673ffffffffffffffffffffffffffffffffffffffff1663ff02d3ed886000604051602001526040518263ffffffff167c0100000000000000000000000000000000000000000000000000000000028152600401808273ffffffffffffffffffffffffffffffffffffffff1673ffffffffffffffffffffffffffffffffffffffff168152602001915050602060405180830381600087803b151561172d57600080fd5b6102c65a03f1151561173e57600080fd5b5050506040518051905092506000808773ffffffffffffffffffffffffffffffffffffffff1673ffffffffffffffffffffffffffffffffffffffff168152602001908152602001600020600084600019166000191681526020019081526020016000206000866000191660001916815260200190815260200160002060000160009054906101000a900460ff1615156117da5760009350611914565b606060405190810160405280600015158152602001600060010260001916815260200160008152506000808873ffffffffffffffffffffffffffffffffffffffff1673ffffffffffffffffffffffffffffffffffffffff168152602001908152602001600020600085600019166000191681526020019081526020016000206000876000191660001916815260200190815260200160002060008201518160000160006101000a81548160ff0219169083151502179055506020820151816001019060001916905560408201518160020155905050600060010283600019168773ffffffffffffffffffffffffffffffffffffffff167fdba97f1ad590d32fe3b3b426489dfb3320e42c58e2d03e575e61483dc9e758c88860405180826000191660001916815260200191505060405180910390a4600193505b5050509392505050565b600080866000600160009054906101000a900473ffffffffffffffffffffffffffffffffffffffff1673ffffffffffffffffffffffffffffffffffffffff1663ff02d3ed836000604051602001526040518263ffffffff167c0100000000000000000000000000000000000000000000000000000000028152600401808273ffffffffffffffffffffffffffffffffffffffff1673ffffffffffffffffffffffffffffffffffffffff168152602001915050602060405180830381600087803b15156119e957600080fd5b6102c65a03f115156119fa57600080fd5b505050604051805190509050600160009054906101000a900473ffffffffffffffffffffffffffffffffffffffff1673ffffffffffffffffffffffffffffffffffffffff1663a230c524836000604051602001526040518263ffffffff167c0100000000000000000000000000000000000000000000000000000000028152600401808273ffffffffffffffffffffffffffffffffffffffff1673ffffffffffffffffffffffffffffffffffffffff168152602001915050602060405180830381600087803b1515611acb57600080fd5b6102c65a03f11515611adc57600080fd5b505050604051805190508015611baa5750600160009054906101000a900473ffffffffffffffffffffffffffffffffffffffff1673ffffffffffffffffffffffffffffffffffffffff16635c36901c826000604051602001526040518263ffffffff167c0100000000000000000000000000000000000000000000000000000000028152600401808260001916600019168152602001915050602060405180830381600087803b1515611b8e57600080fd5b6102c65a03f11515611b9f57600080fd5b505050604051805190505b1515611bb257fe5b600160009054906101000a900473ffffffffffffffffffffffffffffffffffffffff1673ffffffffffffffffffffffffffffffffffffffff1663ff02d3ed8a6000604051602001526040518263ffffffff167c0100000000000000000000000000000000000000000000000000000000028152600401808273ffffffffffffffffffffffffffffffffffffffff1673ffffffffffffffffffffffffffffffffffffffff168152602001915050602060405180830381600087803b1515611c7757600080fd5b6102c65a03f11515611c8857600080fd5b5050506040518051905092506000808973ffffffffffffffffffffffffffffffffffffffff1673ffffffffffffffffffffffffffffffffffffffff168152602001908152602001600020600084600019166000191681526020019081526020016000206000886000191660001916815260200190815260200160002060000160009054906101000a900460ff1615611d235760009350611e58565b60606040519081016040528060011515815260200187600019168152602001868152506000808a73ffffffffffffffffffffffffffffffffffffffff1673ffffffffffffffffffffffffffffffffffffffff168152602001908152602001600020600085600019166000191681526020019081526020016000206000896000191660001916815260200190815260200160002060008201518160000160006101000a81548160ff0219169083151502179055506020820151816001019060001916905560408201518160020155905050856000191683600019168973ffffffffffffffffffffffffffffffffffffffff167fdba97f1ad590d32fe3b3b426489dfb3320e42c58e2d03e575e61483dc9e758c88a60405180826000191660001916815260200191505060405180910390a4600193505b505050959450505050505600a165627a7a72305820251182470590aee88e3db6c378f21657af72482c6452a1e34978f17232715e350029",
  "source": "pragma solidity ^0.4.8;\n\nimport './Organizations.sol';\n\ncontract PersonalInformations {\n\n    struct PersonalInformation {\n        bool isCreated;\n        bytes32 dataHash;\n        uint expires;\n    }\n\n    // [0] => user address\n    // [1] => organizationKey\n    // [2] => dataKey ex... 'license', 'picture', 'mynumber', ...\n    mapping(address => mapping(bytes32 => mapping(bytes32 => PersonalInformation))) public personalInformations;\n    Organizations public organizations;\n    mapping(address => uint) public nonces;\n\n    event SetPersonalInformationsEvent(address indexed user, bytes32 indexed certificationBodyKey, bytes32 dataKey, bytes32 indexed dataHash);\n\n    function PersonalInformations(Organizations _organizations) {\n        organizations = _organizations;\n    }\n\n    modifier onlyByOrganizationMember(address _addr) {\n        bytes32 organizationKey = organizations.memberOrganizationKeys(_addr);\n        assert(organizations.isMember(_addr) && organizations.isActive(organizationKey));\n        _;\n    }\n\n    function create(address _user, bytes32 _dataKey, bytes32 _dataHash, uint _expires) returns (bool) {\n        return createPrivate(msg.sender, _user, _dataKey, _dataHash, _expires);\n    }\n\n    function createWithSign(address _user, bytes32 _dataKey, bytes32 _dataHash, uint _expires, uint _nonce, bytes _sign) returns (bool) {\n        bytes32 hash = calcEnvHash('createWithSign');\n        hash = sha3(hash, _user);\n        hash = sha3(hash, _dataKey);\n        hash = sha3(hash, _dataHash);\n        hash = sha3(hash, _expires);\n        hash = sha3(hash, _nonce);\n        address from = recoverAddress(hash, _sign);\n\n        if (_nonce != nonces[from]) return false;\n        nonces[from]++;\n\n        return createPrivate(from, _user, _dataKey, _dataHash, _expires);\n    }\n\n    function createPrivate(address _from, address _user, bytes32 _dataKey, bytes32 _dataHash, uint _expires) onlyByOrganizationMember(_from) private returns (bool) {\n        bytes32 certificationBodyKey = organizations.memberOrganizationKeys(_from);\n        if (personalInformations[_user][certificationBodyKey][_dataKey].isCreated) return false;\n\n        personalInformations[_user][certificationBodyKey][_dataKey] = PersonalInformation({ isCreated: true, dataHash: _dataHash, expires: _expires });\n        SetPersonalInformationsEvent(_user, certificationBodyKey, _dataKey, _dataHash);\n        return true;\n    }\n\n    function remove(address _user, bytes32 _dataKey) returns (bool) {\n        return removePrivate(msg.sender, _user, _dataKey);\n    }\n\n    function removeWithSign(address _user, bytes32 _dataKey, uint _nonce, bytes _sign) returns (bool) {\n        bytes32 hash = calcEnvHash('removeWithSign');\n        hash = sha3(hash, _user);\n        hash = sha3(hash, _dataKey);\n        hash = sha3(hash, _nonce);\n        address from = recoverAddress(hash, _sign);\n\n        if (_nonce != nonces[from]) return false;\n        nonces[from]++;\n\n        return removePrivate(from, _user, _dataKey);\n    }\n\n    function removePrivate(address _from, address _user, bytes32 _dataKey) onlyByOrganizationMember(_from) private returns (bool) {\n        bytes32 certificationBodyKey = organizations.memberOrganizationKeys(_from);\n        if (!personalInformations[_user][certificationBodyKey][_dataKey].isCreated) return false;\n\n        personalInformations[_user][certificationBodyKey][_dataKey] = PersonalInformation({ isCreated: false, dataHash: 0, expires: 0 });\n        SetPersonalInformationsEvent(_user, certificationBodyKey, _dataKey, 0);\n        return true;\n    }\n\n    function update(address _user, bytes32 _dataKey, bytes32 _dataHash, uint _expires) returns (bool) {\n        return updatePrivate(msg.sender, _user, _dataKey, _dataHash, _expires);\n    }\n\n    function updateWithSign(address _user, bytes32 _dataKey, bytes32 _dataHash, uint _expires, uint _nonce, bytes _sign) returns (bool) {\n        bytes32 hash = calcEnvHash('updateWithSign');\n        hash = sha3(hash, _user);\n        hash = sha3(hash, _dataKey);\n        hash = sha3(hash, _dataHash);\n        hash = sha3(hash, _expires);\n        hash = sha3(hash, _nonce);\n        address from = recoverAddress(hash, _sign);\n\n        if (_nonce != nonces[from]) return false;\n        nonces[from]++;\n\n        return updatePrivate(from, _user, _dataKey, _dataHash, _expires);\n    }\n\n    function updatePrivate(address _from, address _user, bytes32 _dataKey, bytes32 _dataHash, uint _expires) onlyByOrganizationMember(_from) private returns (bool) {\n        bytes32 certificationBodyKey = organizations.memberOrganizationKeys(_from);\n        if (!personalInformations[_user][certificationBodyKey][_dataKey].isCreated) return false;\n\n        personalInformations[_user][certificationBodyKey][_dataKey].dataHash = _dataHash;\n        personalInformations[_user][certificationBodyKey][_dataKey].expires = _expires;\n        SetPersonalInformationsEvent(_user, certificationBodyKey, _dataKey, _dataHash);\n        return true;\n    }\n\n\n    function calcEnvHash(bytes32 _functionName) constant returns (bytes32 hash) {\n        hash = sha3(this);\n        hash = sha3(hash, _functionName);\n    }\n\n    function recoverAddress(bytes32 _hash, bytes _sign) constant returns (address recoverdAddr) {\n        bytes32 r;\n        bytes32 s;\n        uint8 v;\n\n        assert(_sign.length == 65);\n\n        assembly {\n            r := mload(add(_sign, 32))\n            s := mload(add(_sign, 64))\n            v := byte(0, mload(add(_sign, 96)))\n        }\n\n        if (v < 27) v += 27;\n        assert(v == 27 || v == 28);\n\n        recoverdAddr = ecrecover(_hash, v, r, s);\n        assert(recoverdAddr != 0);\n    }\n}\n",
  "sourcePath": "/home/shijinraj/ethereum/DIFA/oss-kyc/provider/contracts/PersonalInformations.sol",
  "compiler": {
    "name": "solc",
    "version": "0.4.18+commit.9cf6e910.Emscripten.clang"
  },
  "schemaVersion": "1.0.1",
  "updatedAt": "2017-12-15T14:30:34.242Z"
}