{
  "contractName": "ProxyController_v1",
  "abi": [
    {
      "constant": true,
      "inputs": [
        {
          "name": "_organizationsAddress",
          "type": "address"
        },
        {
          "name": "_addr",
          "type": "address"
        }
      ],
      "name": "getNonceInOrganizations",
      "outputs": [
        {
          "name": "",
          "type": "uint256"
        }
      ],
      "payable": false,
      "stateMutability": "view",
      "type": "function"
    },
    {
      "constant": true,
      "inputs": [],
      "name": "provider",
      "outputs": [
        {
          "name": "",
          "type": "address"
        }
      ],
      "payable": false,
      "stateMutability": "view",
      "type": "function"
    },
    {
      "constant": true,
      "inputs": [
        {
          "name": "_personalInformationsAddress",
          "type": "address"
        },
        {
          "name": "_addr",
          "type": "address"
        }
      ],
      "name": "getNonceInPersonalInformations",
      "outputs": [
        {
          "name": "",
          "type": "uint256"
        }
      ],
      "payable": false,
      "stateMutability": "view",
      "type": "function"
    },
    {
      "constant": false,
      "inputs": [
        {
          "name": "_sign",
          "type": "bytes"
        },
        {
          "name": "_personalInformationsAddress",
          "type": "address"
        },
        {
          "name": "_user",
          "type": "address"
        },
        {
          "name": "_dataKey",
          "type": "bytes32"
        },
        {
          "name": "_nonce",
          "type": "uint256"
        },
        {
          "name": "_clientSign",
          "type": "bytes"
        }
      ],
      "name": "removePersonalInformation",
      "outputs": [],
      "payable": false,
      "stateMutability": "nonpayable",
      "type": "function"
    },
    {
      "constant": true,
      "inputs": [],
      "name": "isVersionContract",
      "outputs": [
        {
          "name": "",
          "type": "bool"
        }
      ],
      "payable": false,
      "stateMutability": "view",
      "type": "function"
    },
    {
      "constant": false,
      "inputs": [
        {
          "name": "_sign",
          "type": "bytes"
        },
        {
          "name": "_personalInformationsAddress",
          "type": "address"
        },
        {
          "name": "_user",
          "type": "address"
        },
        {
          "name": "_dataKey",
          "type": "bytes32"
        },
        {
          "name": "_dataHash",
          "type": "bytes32"
        },
        {
          "name": "_expires",
          "type": "uint256"
        },
        {
          "name": "_nonce",
          "type": "uint256"
        },
        {
          "name": "_clientSign",
          "type": "bytes"
        }
      ],
      "name": "createPersonalInformation",
      "outputs": [],
      "payable": false,
      "stateMutability": "nonpayable",
      "type": "function"
    },
    {
      "constant": false,
      "inputs": [
        {
          "name": "_sign",
          "type": "bytes"
        },
        {
          "name": "_organizationsAddress",
          "type": "address"
        },
        {
          "name": "_organizationKey",
          "type": "bytes32"
        },
        {
          "name": "_nonce",
          "type": "uint256"
        },
        {
          "name": "_clientSign",
          "type": "bytes"
        }
      ],
      "name": "createOrganization",
      "outputs": [],
      "payable": false,
      "stateMutability": "nonpayable",
      "type": "function"
    },
    {
      "constant": false,
      "inputs": [
        {
          "name": "_sign",
          "type": "bytes"
        },
        {
          "name": "_personalInformationsAddress",
          "type": "address"
        },
        {
          "name": "_user",
          "type": "address"
        },
        {
          "name": "_dataKey",
          "type": "bytes32"
        },
        {
          "name": "_dataHash",
          "type": "bytes32"
        },
        {
          "name": "_expires",
          "type": "uint256"
        },
        {
          "name": "_nonce",
          "type": "uint256"
        },
        {
          "name": "_clientSign",
          "type": "bytes"
        }
      ],
      "name": "updatePersonalInformation",
      "outputs": [],
      "payable": false,
      "stateMutability": "nonpayable",
      "type": "function"
    },
    {
      "constant": true,
      "inputs": [],
      "name": "isVersionLogic",
      "outputs": [
        {
          "name": "",
          "type": "bool"
        }
      ],
      "payable": false,
      "stateMutability": "view",
      "type": "function"
    },
    {
      "constant": true,
      "inputs": [],
      "name": "contractName",
      "outputs": [
        {
          "name": "",
          "type": "bytes32"
        }
      ],
      "payable": false,
      "stateMutability": "view",
      "type": "function"
    },
    {
      "constant": true,
      "inputs": [],
      "name": "logic_v1",
      "outputs": [
        {
          "name": "",
          "type": "address"
        }
      ],
      "payable": false,
      "stateMutability": "view",
      "type": "function"
    },
    {
      "constant": false,
      "inputs": [
        {
          "name": "_sign",
          "type": "bytes"
        },
        {
          "name": "_organizationsAddress",
          "type": "address"
        },
        {
          "name": "_addr",
          "type": "address"
        },
        {
          "name": "_nonce",
          "type": "uint256"
        },
        {
          "name": "_clientSign",
          "type": "bytes"
        }
      ],
      "name": "addOrganizationMember",
      "outputs": [],
      "payable": false,
      "stateMutability": "nonpayable",
      "type": "function"
    },
    {
      "constant": false,
      "inputs": [
        {
          "name": "_sign",
          "type": "bytes"
        },
        {
          "name": "_organizationsAddress",
          "type": "address"
        },
        {
          "name": "_addr",
          "type": "address"
        },
        {
          "name": "_nonce",
          "type": "uint256"
        },
        {
          "name": "_clientSign",
          "type": "bytes"
        }
      ],
      "name": "removeOrganizationMember",
      "outputs": [],
      "payable": false,
      "stateMutability": "nonpayable",
      "type": "function"
    },
    {
      "constant": false,
      "inputs": [
        {
          "name": "_sign",
          "type": "bytes"
        },
        {
          "name": "_organizationsAddress",
          "type": "address"
        },
        {
          "name": "_addr",
          "type": "address"
        },
        {
          "name": "_nonce",
          "type": "uint256"
        },
        {
          "name": "_clientSign",
          "type": "bytes"
        }
      ],
      "name": "removeOrganizationAdmin",
      "outputs": [],
      "payable": false,
      "stateMutability": "nonpayable",
      "type": "function"
    },
    {
      "constant": false,
      "inputs": [
        {
          "name": "_sign",
          "type": "bytes"
        },
        {
          "name": "_organizationsAddress",
          "type": "address"
        },
        {
          "name": "_addr",
          "type": "address"
        },
        {
          "name": "_nonce",
          "type": "uint256"
        },
        {
          "name": "_clientSign",
          "type": "bytes"
        }
      ],
      "name": "addOrganizationAdmin",
      "outputs": [],
      "payable": false,
      "stateMutability": "nonpayable",
      "type": "function"
    },
    {
      "constant": true,
      "inputs": [],
      "name": "isVersionContractOrLogic",
      "outputs": [
        {
          "name": "",
          "type": "bool"
        }
      ],
      "payable": false,
      "stateMutability": "view",
      "type": "function"
    },
    {
      "constant": false,
      "inputs": [
        {
          "name": "_sign",
          "type": "bytes"
        },
        {
          "name": "_organizationsAddress",
          "type": "address"
        },
        {
          "name": "_nonce",
          "type": "uint256"
        },
        {
          "name": "_clientSign",
          "type": "bytes"
        }
      ],
      "name": "changeOrganizationActivation",
      "outputs": [],
      "payable": false,
      "stateMutability": "nonpayable",
      "type": "function"
    },
    {
      "constant": true,
      "inputs": [],
      "name": "cns",
      "outputs": [
        {
          "name": "",
          "type": "address"
        }
      ],
      "payable": false,
      "stateMutability": "view",
      "type": "function"
    },
    {
      "constant": true,
      "inputs": [
        {
          "name": "_personalInformationsAddress",
          "type": "address"
        },
        {
          "name": "_addr",
          "type": "address"
        },
        {
          "name": "_certificationBodyKey",
          "type": "bytes32"
        },
        {
          "name": "_dataKey",
          "type": "bytes32"
        }
      ],
      "name": "getPersonalInformation",
      "outputs": [
        {
          "name": "",
          "type": "bool"
        },
        {
          "name": "",
          "type": "bytes32"
        },
        {
          "name": "",
          "type": "uint256"
        }
      ],
      "payable": false,
      "stateMutability": "view",
      "type": "function"
    },
    {
      "constant": true,
      "inputs": [],
      "name": "getContractName",
      "outputs": [
        {
          "name": "",
          "type": "bytes32"
        }
      ],
      "payable": false,
      "stateMutability": "view",
      "type": "function"
    },
    {
      "constant": true,
      "inputs": [],
      "name": "getCns",
      "outputs": [
        {
          "name": "",
          "type": "address"
        }
      ],
      "payable": false,
      "stateMutability": "view",
      "type": "function"
    },
    {
      "inputs": [
        {
          "name": "_cns",
          "type": "address"
        },
        {
          "name": "_logic_v1",
          "type": "address"
        }
      ],
      "payable": false,
      "stateMutability": "nonpayable",
      "type": "constructor"
    }
  ],
  "bytecode": "0x6060604052336000806101000a81548173ffffffffffffffffffffffffffffffffffffffff021916908373ffffffffffffffffffffffffffffffffffffffff160217905550341561004f57600080fd5b60405160408061242c83398101604052808051906020019091908051906020019091905050817f50726f7879436f6e74726f6c6c65720000000000000000000000000000000000818181600160006101000a81548173ffffffffffffffffffffffffffffffffffffffff021916908373ffffffffffffffffffffffffffffffffffffffff16021790555080600281600019169055505050505080600360006101000a81548173ffffffffffffffffffffffffffffffffffffffff021916908373ffffffffffffffffffffffffffffffffffffffff16021790555050506122f28061013a6000396000f30060606040526004361061011d576000357c0100000000000000000000000000000000000000000000000000000000900463ffffffff1680630601640c14610122578063085d48831461018e578063182569a4146101e3578063256670461461024f578063360aa28b146103435780633d59458014610370578063453aacea1461047a5780634936fadc1461054f57806354a6ff681461065957806375d0c0dc14610686578063859ca95b146106b7578063a53f4af01461070c578063a9d026c5146107f3578063b7d13e66146108da578063bc7402b9146109c1578063beff90dc14610aa8578063d9e7628814610ad5578063f1c248b114610b9d578063f32004d514610bf2578063f5f5ba7214610c92578063f9b2b19a14610cc3575b600080fd5b341561012d57600080fd5b610178600480803573ffffffffffffffffffffffffffffffffffffffff1690602001909190803573ffffffffffffffffffffffffffffffffffffffff16906020019091905050610d18565b6040518082815260200191505060405180910390f35b341561019957600080fd5b6101a1610e36565b604051808273ffffffffffffffffffffffffffffffffffffffff1673ffffffffffffffffffffffffffffffffffffffff16815260200191505060405180910390f35b34156101ee57600080fd5b610239600480803573ffffffffffffffffffffffffffffffffffffffff1690602001909190803573ffffffffffffffffffffffffffffffffffffffff16906020019091905050610e5b565b6040518082815260200191505060405180910390f35b341561025a57600080fd5b610341600480803590602001908201803590602001908080601f0160208091040260200160405190810160405280939291908181526020018383808284378201915050505050509190803573ffffffffffffffffffffffffffffffffffffffff1690602001909190803573ffffffffffffffffffffffffffffffffffffffff169060200190919080356000191690602001909190803590602001909190803590602001908201803590602001908080601f01602080910402602001604051908101604052809392919081815260200183838082843782019150505050505091905050610f79565b005b341561034e57600080fd5b61035661110a565b604051808215151515815260200191505060405180910390f35b341561037b57600080fd5b610478600480803590602001908201803590602001908080601f0160208091040260200160405190810160405280939291908181526020018383808284378201915050505050509190803573ffffffffffffffffffffffffffffffffffffffff1690602001909190803573ffffffffffffffffffffffffffffffffffffffff16906020019091908035600019169060200190919080356000191690602001909190803590602001909190803590602001909190803590602001908201803590602001908080601f01602080910402602001604051908101604052809392919081815260200183838082843782019150505050505091905050611203565b005b341561048557600080fd5b61054d600480803590602001908201803590602001908080601f0160208091040260200160405190810160405280939291908181526020018383808284378201915050505050509190803573ffffffffffffffffffffffffffffffffffffffff169060200190919080356000191690602001909190803590602001909190803590602001908201803590602001908080601f016020809104026020016040519081016040528093929190818152602001838380828437820191505050505050919050506113ae565b005b341561055a57600080fd5b610657600480803590602001908201803590602001908080601f0160208091040260200160405190810160405280939291908181526020018383808284378201915050505050509190803573ffffffffffffffffffffffffffffffffffffffff1690602001909190803573ffffffffffffffffffffffffffffffffffffffff16906020019091908035600019169060200190919080356000191690602001909190803590602001909190803590602001909190803590602001908201803590602001908080601f0160208091040260200160405190810160405280939291908181526020018383808284378201915050505050509190505061150a565b005b341561066457600080fd5b61066c6116b5565b604051808215151515815260200191505060405180910390f35b341561069157600080fd5b6106996117ae565b60405180826000191660001916815260200191505060405180910390f35b34156106c257600080fd5b6106ca6117b4565b604051808273ffffffffffffffffffffffffffffffffffffffff1673ffffffffffffffffffffffffffffffffffffffff16815260200191505060405180910390f35b341561071757600080fd5b6107f1600480803590602001908201803590602001908080601f0160208091040260200160405190810160405280939291908181526020018383808284378201915050505050509190803573ffffffffffffffffffffffffffffffffffffffff1690602001909190803573ffffffffffffffffffffffffffffffffffffffff1690602001909190803590602001909190803590602001908201803590602001908080601f016020809104026020016040519081016040528093929190818152602001838380828437820191505050505050919050506117da565b005b34156107fe57600080fd5b6108d8600480803590602001908201803590602001908080601f0160208091040260200160405190810160405280939291908181526020018383808284378201915050505050509190803573ffffffffffffffffffffffffffffffffffffffff1690602001909190803573ffffffffffffffffffffffffffffffffffffffff1690602001909190803590602001909190803590602001908201803590602001908080601f0160208091040260200160405190810160405280939291908181526020018383808284378201915050505050509190505061195a565b005b34156108e557600080fd5b6109bf600480803590602001908201803590602001908080601f0160208091040260200160405190810160405280939291908181526020018383808284378201915050505050509190803573ffffffffffffffffffffffffffffffffffffffff1690602001909190803573ffffffffffffffffffffffffffffffffffffffff1690602001909190803590602001909190803590602001908201803590602001908080601f01602080910402602001604051908101604052809392919081815260200183838082843782019150505050505091905050611ada565b005b34156109cc57600080fd5b610aa6600480803590602001908201803590602001908080601f0160208091040260200160405190810160405280939291908181526020018383808284378201915050505050509190803573ffffffffffffffffffffffffffffffffffffffff1690602001909190803573ffffffffffffffffffffffffffffffffffffffff1690602001909190803590602001909190803590602001908201803590602001908080601f01602080910402602001604051908101604052809392919081815260200183838082843782019150505050505091905050611c5a565b005b3415610ab357600080fd5b610abb611dda565b604051808215151515815260200191505060405180910390f35b3415610ae057600080fd5b610b9b600480803590602001908201803590602001908080601f0160208091040260200160405190810160405280939291908181526020018383808284378201915050505050509190803573ffffffffffffffffffffffffffffffffffffffff1690602001909190803590602001909190803590602001908201803590602001908080601f01602080910402602001604051908101604052809392919081815260200183838082843782019150505050505091905050611fcc565b005b3415610ba857600080fd5b610bb0612117565b604051808273ffffffffffffffffffffffffffffffffffffffff1673ffffffffffffffffffffffffffffffffffffffff16815260200191505060405180910390f35b3415610bfd57600080fd5b610c62600480803573ffffffffffffffffffffffffffffffffffffffff1690602001909190803573ffffffffffffffffffffffffffffffffffffffff16906020019091908035600019169060200190919080356000191690602001909190505061213d565b60405180841515151581526020018360001916600019168152602001828152602001935050505060405180910390f35b3415610c9d57600080fd5b610ca5612292565b60405180826000191660001916815260200191505060405180910390f35b3415610cce57600080fd5b610cd661229c565b604051808273ffffffffffffffffffffffffffffffffffffffff1673ffffffffffffffffffffffffffffffffffffffff16815260200191505060405180910390f35b6000600360009054906101000a900473ffffffffffffffffffffffffffffffffffffffff1673ffffffffffffffffffffffffffffffffffffffff16630601640c84846000604051602001526040518363ffffffff167c0100000000000000000000000000000000000000000000000000000000028152600401808373ffffffffffffffffffffffffffffffffffffffff1673ffffffffffffffffffffffffffffffffffffffff1681526020018273ffffffffffffffffffffffffffffffffffffffff1673ffffffffffffffffffffffffffffffffffffffff16815260200192505050602060405180830381600087803b1515610e1357600080fd5b6102c65a03f11515610e2457600080fd5b50505060405180519050905092915050565b6000809054906101000a900473ffffffffffffffffffffffffffffffffffffffff1681565b6000600360009054906101000a900473ffffffffffffffffffffffffffffffffffffffff1673ffffffffffffffffffffffffffffffffffffffff1663182569a484846000604051602001526040518363ffffffff167c0100000000000000000000000000000000000000000000000000000000028152600401808373ffffffffffffffffffffffffffffffffffffffff1673ffffffffffffffffffffffffffffffffffffffff1681526020018273ffffffffffffffffffffffffffffffffffffffff1673ffffffffffffffffffffffffffffffffffffffff16815260200192505050602060405180830381600087803b1515610f5657600080fd5b6102c65a03f11515610f6757600080fd5b50505060405180519050905092915050565b600360009054906101000a900473ffffffffffffffffffffffffffffffffffffffff1673ffffffffffffffffffffffffffffffffffffffff16637f70952686868686866040518663ffffffff167c0100000000000000000000000000000000000000000000000000000000028152600401808673ffffffffffffffffffffffffffffffffffffffff1673ffffffffffffffffffffffffffffffffffffffff1681526020018573ffffffffffffffffffffffffffffffffffffffff1673ffffffffffffffffffffffffffffffffffffffff168152602001846000191660001916815260200183815260200180602001828103825283818151815260200191508051906020019080838360005b8381101561109f578082015181840152602081019050611084565b50505050905090810190601f1680156110cc5780820380516001836020036101000a031916815260200191505b509650505050505050600060405180830381600087803b15156110ee57600080fd5b6102c65a03f115156110ff57600080fd5b505050505050505050565b6000600160009054906101000a900473ffffffffffffffffffffffffffffffffffffffff1673ffffffffffffffffffffffffffffffffffffffff1663062af37d336002546000604051602001526040518363ffffffff167c0100000000000000000000000000000000000000000000000000000000028152600401808373ffffffffffffffffffffffffffffffffffffffff1673ffffffffffffffffffffffffffffffffffffffff168152602001826000191660001916815260200192505050602060405180830381600087803b15156111e357600080fd5b6102c65a03f115156111f457600080fd5b50505060405180519050905090565b600360009054906101000a900473ffffffffffffffffffffffffffffffffffffffff1673ffffffffffffffffffffffffffffffffffffffff16637b388dc2888888888888886040518863ffffffff167c0100000000000000000000000000000000000000000000000000000000028152600401808873ffffffffffffffffffffffffffffffffffffffff1673ffffffffffffffffffffffffffffffffffffffff1681526020018773ffffffffffffffffffffffffffffffffffffffff1673ffffffffffffffffffffffffffffffffffffffff1681526020018660001916600019168152602001856000191660001916815260200184815260200183815260200180602001828103825283818151815260200191508051906020019080838360005b8381101561133f578082015181840152602081019050611324565b50505050905090810190601f16801561136c5780820380516001836020036101000a031916815260200191505b5098505050505050505050600060405180830381600087803b151561139057600080fd5b6102c65a03f115156113a157600080fd5b5050505050505050505050565b600360009054906101000a900473ffffffffffffffffffffffffffffffffffffffff1673ffffffffffffffffffffffffffffffffffffffff16631e374a83858585856040518563ffffffff167c0100000000000000000000000000000000000000000000000000000000028152600401808573ffffffffffffffffffffffffffffffffffffffff1673ffffffffffffffffffffffffffffffffffffffff168152602001846000191660001916815260200183815260200180602001828103825283818151815260200191508051906020019080838360005b838110156114a1578082015181840152602081019050611486565b50505050905090810190601f1680156114ce5780820380516001836020036101000a031916815260200191505b5095505050505050600060405180830381600087803b15156114ef57600080fd5b6102c65a03f1151561150057600080fd5b5050505050505050565b600360009054906101000a900473ffffffffffffffffffffffffffffffffffffffff1673ffffffffffffffffffffffffffffffffffffffff1663beea9708888888888888886040518863ffffffff167c0100000000000000000000000000000000000000000000000000000000028152600401808873ffffffffffffffffffffffffffffffffffffffff1673ffffffffffffffffffffffffffffffffffffffff1681526020018773ffffffffffffffffffffffffffffffffffffffff1673ffffffffffffffffffffffffffffffffffffffff1681526020018660001916600019168152602001856000191660001916815260200184815260200183815260200180602001828103825283818151815260200191508051906020019080838360005b8381101561164657808201518184015260208101905061162b565b50505050905090810190601f1680156116735780820380516001836020036101000a031916815260200191505b5098505050505050505050600060405180830381600087803b151561169757600080fd5b6102c65a03f115156116a857600080fd5b5050505050505050505050565b6000600160009054906101000a900473ffffffffffffffffffffffffffffffffffffffff1673ffffffffffffffffffffffffffffffffffffffff166320cad613336002546000604051602001526040518363ffffffff167c0100000000000000000000000000000000000000000000000000000000028152600401808373ffffffffffffffffffffffffffffffffffffffff1673ffffffffffffffffffffffffffffffffffffffff168152602001826000191660001916815260200192505050602060405180830381600087803b151561178e57600080fd5b6102c65a03f1151561179f57600080fd5b50505060405180519050905090565b60025481565b600360009054906101000a900473ffffffffffffffffffffffffffffffffffffffff1681565b600360009054906101000a900473ffffffffffffffffffffffffffffffffffffffff1673ffffffffffffffffffffffffffffffffffffffff16631ff5daf4858585856040518563ffffffff167c0100000000000000000000000000000000000000000000000000000000028152600401808573ffffffffffffffffffffffffffffffffffffffff1673ffffffffffffffffffffffffffffffffffffffff1681526020018473ffffffffffffffffffffffffffffffffffffffff1673ffffffffffffffffffffffffffffffffffffffff16815260200183815260200180602001828103825283818151815260200191508051906020019080838360005b838110156118f15780820151818401526020810190506118d6565b50505050905090810190601f16801561191e5780820380516001836020036101000a031916815260200191505b5095505050505050600060405180830381600087803b151561193f57600080fd5b6102c65a03f1151561195057600080fd5b5050505050505050565b600360009054906101000a900473ffffffffffffffffffffffffffffffffffffffff1673ffffffffffffffffffffffffffffffffffffffff1663dec25c6f858585856040518563ffffffff167c0100000000000000000000000000000000000000000000000000000000028152600401808573ffffffffffffffffffffffffffffffffffffffff1673ffffffffffffffffffffffffffffffffffffffff1681526020018473ffffffffffffffffffffffffffffffffffffffff1673ffffffffffffffffffffffffffffffffffffffff16815260200183815260200180602001828103825283818151815260200191508051906020019080838360005b83811015611a71578082015181840152602081019050611a56565b50505050905090810190601f168015611a9e5780820380516001836020036101000a031916815260200191505b5095505050505050600060405180830381600087803b1515611abf57600080fd5b6102c65a03f11515611ad057600080fd5b5050505050505050565b600360009054906101000a900473ffffffffffffffffffffffffffffffffffffffff1673ffffffffffffffffffffffffffffffffffffffff1663394a1fe9858585856040518563ffffffff167c0100000000000000000000000000000000000000000000000000000000028152600401808573ffffffffffffffffffffffffffffffffffffffff1673ffffffffffffffffffffffffffffffffffffffff1681526020018473ffffffffffffffffffffffffffffffffffffffff1673ffffffffffffffffffffffffffffffffffffffff16815260200183815260200180602001828103825283818151815260200191508051906020019080838360005b83811015611bf1578082015181840152602081019050611bd6565b50505050905090810190601f168015611c1e5780820380516001836020036101000a031916815260200191505b5095505050505050600060405180830381600087803b1515611c3f57600080fd5b6102c65a03f11515611c5057600080fd5b5050505050505050565b600360009054906101000a900473ffffffffffffffffffffffffffffffffffffffff1673ffffffffffffffffffffffffffffffffffffffff1663606e7974858585856040518563ffffffff167c0100000000000000000000000000000000000000000000000000000000028152600401808573ffffffffffffffffffffffffffffffffffffffff1673ffffffffffffffffffffffffffffffffffffffff1681526020018473ffffffffffffffffffffffffffffffffffffffff1673ffffffffffffffffffffffffffffffffffffffff16815260200183815260200180602001828103825283818151815260200191508051906020019080838360005b83811015611d71578082015181840152602081019050611d56565b50505050905090810190601f168015611d9e5780820380516001836020036101000a031916815260200191505b5095505050505050600060405180830381600087803b1515611dbf57600080fd5b6102c65a03f11515611dd057600080fd5b5050505050505050565b6000600160009054906101000a900473ffffffffffffffffffffffffffffffffffffffff1673ffffffffffffffffffffffffffffffffffffffff1663062af37d336002546000604051602001526040518363ffffffff167c0100000000000000000000000000000000000000000000000000000000028152600401808373ffffffffffffffffffffffffffffffffffffffff1673ffffffffffffffffffffffffffffffffffffffff168152602001826000191660001916815260200192505050602060405180830381600087803b1515611eb357600080fd5b6102c65a03f11515611ec457600080fd5b5050506040518051905080611fc75750600160009054906101000a900473ffffffffffffffffffffffffffffffffffffffff1673ffffffffffffffffffffffffffffffffffffffff166320cad613336002546000604051602001526040518363ffffffff167c0100000000000000000000000000000000000000000000000000000000028152600401808373ffffffffffffffffffffffffffffffffffffffff1673ffffffffffffffffffffffffffffffffffffffff168152602001826000191660001916815260200192505050602060405180830381600087803b1515611fab57600080fd5b6102c65a03f11515611fbc57600080fd5b505050604051805190505b905090565b600360009054906101000a900473ffffffffffffffffffffffffffffffffffffffff1673ffffffffffffffffffffffffffffffffffffffff1663d3ed240e8484846040518463ffffffff167c0100000000000000000000000000000000000000000000000000000000028152600401808473ffffffffffffffffffffffffffffffffffffffff1673ffffffffffffffffffffffffffffffffffffffff16815260200183815260200180602001828103825283818151815260200191508051906020019080838360005b838110156120b0578082015181840152602081019050612095565b50505050905090810190601f1680156120dd5780820380516001836020036101000a031916815260200191505b50945050505050600060405180830381600087803b15156120fd57600080fd5b6102c65a03f1151561210e57600080fd5b50505050505050565b600160009054906101000a900473ffffffffffffffffffffffffffffffffffffffff1681565b6000806000600360009054906101000a900473ffffffffffffffffffffffffffffffffffffffff1673ffffffffffffffffffffffffffffffffffffffff1663f32004d5888888886000604051606001526040518563ffffffff167c0100000000000000000000000000000000000000000000000000000000028152600401808573ffffffffffffffffffffffffffffffffffffffff1673ffffffffffffffffffffffffffffffffffffffff1681526020018473ffffffffffffffffffffffffffffffffffffffff1673ffffffffffffffffffffffffffffffffffffffff16815260200183600019166000191681526020018260001916600019168152602001945050505050606060405180830381600087803b151561225b57600080fd5b6102c65a03f1151561226c57600080fd5b505050604051805190602001805190602001805190509250925092509450945094915050565b6000600254905090565b6000600160009054906101000a900473ffffffffffffffffffffffffffffffffffffffff169050905600a165627a7a723058204d8ae13b80a24106d60dea393da9fb519c8e4252db6bf32522dd8b8766979dc20029",
  "source": "pragma solidity ^0.4.8;\n\nimport '../../gmo/contracts/VersionContract.sol';\nimport './ProxyControllerLogic_v1.sol';\n\ncontract ProxyController_v1 is VersionContract {\n    ProxyControllerLogic_v1 public logic_v1;\n\n    function ProxyController_v1(ContractNameService _cns, ProxyControllerLogic_v1 _logic_v1) VersionContract(_cns, 'ProxyController') {\n        logic_v1 = _logic_v1;\n    }\n\n    function getNonceInOrganizations(address _organizationsAddress, address _addr) constant returns (uint) {\n        return logic_v1.getNonceInOrganizations(_organizationsAddress, _addr);\n    }\n\n    function createOrganization(bytes _sign, address _organizationsAddress, bytes32 _organizationKey, uint _nonce, bytes _clientSign) {\n        logic_v1.createOrganization(_organizationsAddress, _organizationKey, _nonce, _clientSign);\n    }\n\n    function changeOrganizationActivation(bytes _sign, address _organizationsAddress, uint _nonce, bytes _clientSign) {\n        logic_v1.changeOrganizationActivation(_organizationsAddress, _nonce, _clientSign);\n    }\n\n    function addOrganizationAdmin(bytes _sign, address _organizationsAddress, address _addr, uint _nonce, bytes _clientSign) {\n        logic_v1.addOrganizationAdmin(_organizationsAddress, _addr, _nonce, _clientSign);\n    }\n\n    function removeOrganizationAdmin(bytes _sign, address _organizationsAddress, address _addr, uint _nonce, bytes _clientSign) {\n        logic_v1.removeOrganizationAdmin(_organizationsAddress, _addr, _nonce, _clientSign);\n    }\n\n    function addOrganizationMember(bytes _sign, address _organizationsAddress, address _addr, uint _nonce, bytes _clientSign) {\n        logic_v1.addOrganizationMember(_organizationsAddress, _addr, _nonce, _clientSign);\n    }\n\n    function removeOrganizationMember(bytes _sign, address _organizationsAddress, address _addr, uint _nonce, bytes _clientSign) {\n        logic_v1.removeOrganizationMember(_organizationsAddress, _addr, _nonce, _clientSign);\n    }\n\n    function getNonceInPersonalInformations(address _personalInformationsAddress, address _addr) constant returns (uint) {\n        return logic_v1.getNonceInPersonalInformations(_personalInformationsAddress, _addr);\n    }\n\n    function createPersonalInformation(bytes _sign, address _personalInformationsAddress, address _user, bytes32 _dataKey, bytes32 _dataHash, uint _expires, uint _nonce, bytes _clientSign) {\n        logic_v1.createPersonalInformation(_personalInformationsAddress, _user, _dataKey, _dataHash, _expires, _nonce, _clientSign);\n    }\n\n    function removePersonalInformation(bytes _sign, address _personalInformationsAddress, address _user, bytes32 _dataKey, uint _nonce, bytes _clientSign) {\n        logic_v1.removePersonalInformation(_personalInformationsAddress, _user, _dataKey, _nonce, _clientSign);\n    }\n\n    function updatePersonalInformation(bytes _sign, address _personalInformationsAddress, address _user, bytes32 _dataKey, bytes32 _dataHash, uint _expires, uint _nonce, bytes _clientSign) {\n        logic_v1.updatePersonalInformation(_personalInformationsAddress, _user, _dataKey, _dataHash, _expires, _nonce, _clientSign);\n    }\n\n    function getPersonalInformation(address _personalInformationsAddress, address _addr, bytes32 _certificationBodyKey, bytes32 _dataKey) constant returns (bool, bytes32, uint) {\n        return logic_v1.getPersonalInformation(_personalInformationsAddress, _addr, _certificationBodyKey, _dataKey);\n    }\n}\n",
  "sourcePath": "/home/shijinraj/ethereum/DIFA/oss-kyc/provider/contracts/ProxyController_v1.sol",
  "compiler": {
    "name": "solc",
    "version": "0.4.18+commit.9cf6e910.Emscripten.clang"
  },
  "schemaVersion": "1.0.1",
  "updatedAt": "2017-12-15T14:30:33.500Z"
}