{
  "contractName": "ProxyControllerLogic_v1",
  "abi": [
    {
      "constant": true,
      "inputs": [
        {
          "name": "_organizationsAddress",
          "type": "address"
        },
        {
          "name": "_addr",
          "type": "address"
        }
      ],
      "name": "getNonceInOrganizations",
      "outputs": [
        {
          "name": "",
          "type": "uint256"
        }
      ],
      "payable": false,
      "stateMutability": "view",
      "type": "function"
    },
    {
      "constant": true,
      "inputs": [],
      "name": "provider",
      "outputs": [
        {
          "name": "",
          "type": "address"
        }
      ],
      "payable": false,
      "stateMutability": "view",
      "type": "function"
    },
    {
      "constant": true,
      "inputs": [
        {
          "name": "_personalInformationsAddress",
          "type": "address"
        },
        {
          "name": "_addr",
          "type": "address"
        }
      ],
      "name": "getNonceInPersonalInformations",
      "outputs": [
        {
          "name": "",
          "type": "uint256"
        }
      ],
      "payable": false,
      "stateMutability": "view",
      "type": "function"
    },
    {
      "constant": false,
      "inputs": [
        {
          "name": "_organizationsAddress",
          "type": "address"
        },
        {
          "name": "_organizationKey",
          "type": "bytes32"
        },
        {
          "name": "_nonce",
          "type": "uint256"
        },
        {
          "name": "_clientSign",
          "type": "bytes"
        }
      ],
      "name": "createOrganization",
      "outputs": [],
      "payable": false,
      "stateMutability": "nonpayable",
      "type": "function"
    },
    {
      "constant": false,
      "inputs": [
        {
          "name": "_organizationsAddress",
          "type": "address"
        },
        {
          "name": "_addr",
          "type": "address"
        },
        {
          "name": "_nonce",
          "type": "uint256"
        },
        {
          "name": "_clientSign",
          "type": "bytes"
        }
      ],
      "name": "addOrganizationMember",
      "outputs": [],
      "payable": false,
      "stateMutability": "nonpayable",
      "type": "function"
    },
    {
      "constant": true,
      "inputs": [],
      "name": "isVersionContract",
      "outputs": [
        {
          "name": "",
          "type": "bool"
        }
      ],
      "payable": false,
      "stateMutability": "view",
      "type": "function"
    },
    {
      "constant": false,
      "inputs": [
        {
          "name": "_organizationsAddress",
          "type": "address"
        },
        {
          "name": "_addr",
          "type": "address"
        },
        {
          "name": "_nonce",
          "type": "uint256"
        },
        {
          "name": "_clientSign",
          "type": "bytes"
        }
      ],
      "name": "removeOrganizationAdmin",
      "outputs": [],
      "payable": false,
      "stateMutability": "nonpayable",
      "type": "function"
    },
    {
      "constant": true,
      "inputs": [],
      "name": "isVersionLogic",
      "outputs": [
        {
          "name": "",
          "type": "bool"
        }
      ],
      "payable": false,
      "stateMutability": "view",
      "type": "function"
    },
    {
      "constant": false,
      "inputs": [
        {
          "name": "_organizationsAddress",
          "type": "address"
        },
        {
          "name": "_addr",
          "type": "address"
        },
        {
          "name": "_nonce",
          "type": "uint256"
        },
        {
          "name": "_clientSign",
          "type": "bytes"
        }
      ],
      "name": "addOrganizationAdmin",
      "outputs": [],
      "payable": false,
      "stateMutability": "nonpayable",
      "type": "function"
    },
    {
      "constant": true,
      "inputs": [],
      "name": "contractName",
      "outputs": [
        {
          "name": "",
          "type": "bytes32"
        }
      ],
      "payable": false,
      "stateMutability": "view",
      "type": "function"
    },
    {
      "constant": false,
      "inputs": [
        {
          "name": "_personalInformationsAddress",
          "type": "address"
        },
        {
          "name": "_user",
          "type": "address"
        },
        {
          "name": "_dataKey",
          "type": "bytes32"
        },
        {
          "name": "_dataHash",
          "type": "bytes32"
        },
        {
          "name": "_expires",
          "type": "uint256"
        },
        {
          "name": "_nonce",
          "type": "uint256"
        },
        {
          "name": "_clientSign",
          "type": "bytes"
        }
      ],
      "name": "createPersonalInformation",
      "outputs": [],
      "payable": false,
      "stateMutability": "nonpayable",
      "type": "function"
    },
    {
      "constant": false,
      "inputs": [
        {
          "name": "_personalInformationsAddress",
          "type": "address"
        },
        {
          "name": "_user",
          "type": "address"
        },
        {
          "name": "_dataKey",
          "type": "bytes32"
        },
        {
          "name": "_nonce",
          "type": "uint256"
        },
        {
          "name": "_clientSign",
          "type": "bytes"
        }
      ],
      "name": "removePersonalInformation",
      "outputs": [],
      "payable": false,
      "stateMutability": "nonpayable",
      "type": "function"
    },
    {
      "constant": false,
      "inputs": [
        {
          "name": "_personalInformationsAddress",
          "type": "address"
        },
        {
          "name": "_user",
          "type": "address"
        },
        {
          "name": "_dataKey",
          "type": "bytes32"
        },
        {
          "name": "_dataHash",
          "type": "bytes32"
        },
        {
          "name": "_expires",
          "type": "uint256"
        },
        {
          "name": "_nonce",
          "type": "uint256"
        },
        {
          "name": "_clientSign",
          "type": "bytes"
        }
      ],
      "name": "updatePersonalInformation",
      "outputs": [],
      "payable": false,
      "stateMutability": "nonpayable",
      "type": "function"
    },
    {
      "constant": true,
      "inputs": [],
      "name": "isVersionContractOrLogic",
      "outputs": [
        {
          "name": "",
          "type": "bool"
        }
      ],
      "payable": false,
      "stateMutability": "view",
      "type": "function"
    },
    {
      "constant": false,
      "inputs": [
        {
          "name": "_organizationsAddress",
          "type": "address"
        },
        {
          "name": "_nonce",
          "type": "uint256"
        },
        {
          "name": "_clientSign",
          "type": "bytes"
        }
      ],
      "name": "changeOrganizationActivation",
      "outputs": [],
      "payable": false,
      "stateMutability": "nonpayable",
      "type": "function"
    },
    {
      "constant": false,
      "inputs": [
        {
          "name": "_organizationsAddress",
          "type": "address"
        },
        {
          "name": "_addr",
          "type": "address"
        },
        {
          "name": "_nonce",
          "type": "uint256"
        },
        {
          "name": "_clientSign",
          "type": "bytes"
        }
      ],
      "name": "removeOrganizationMember",
      "outputs": [],
      "payable": false,
      "stateMutability": "nonpayable",
      "type": "function"
    },
    {
      "constant": true,
      "inputs": [],
      "name": "cns",
      "outputs": [
        {
          "name": "",
          "type": "address"
        }
      ],
      "payable": false,
      "stateMutability": "view",
      "type": "function"
    },
    {
      "constant": true,
      "inputs": [
        {
          "name": "_personalInformationsAddress",
          "type": "address"
        },
        {
          "name": "_addr",
          "type": "address"
        },
        {
          "name": "_certificationBodyKey",
          "type": "bytes32"
        },
        {
          "name": "_dataKey",
          "type": "bytes32"
        }
      ],
      "name": "getPersonalInformation",
      "outputs": [
        {
          "name": "",
          "type": "bool"
        },
        {
          "name": "",
          "type": "bytes32"
        },
        {
          "name": "",
          "type": "uint256"
        }
      ],
      "payable": false,
      "stateMutability": "view",
      "type": "function"
    },
    {
      "constant": true,
      "inputs": [],
      "name": "getContractName",
      "outputs": [
        {
          "name": "",
          "type": "bytes32"
        }
      ],
      "payable": false,
      "stateMutability": "view",
      "type": "function"
    },
    {
      "constant": true,
      "inputs": [],
      "name": "getCns",
      "outputs": [
        {
          "name": "",
          "type": "address"
        }
      ],
      "payable": false,
      "stateMutability": "view",
      "type": "function"
    },
    {
      "inputs": [
        {
          "name": "_cns",
          "type": "address"
        }
      ],
      "payable": false,
      "stateMutability": "nonpayable",
      "type": "constructor"
    }
  ],
  "bytecode": "0x6060604052336000806101000a81548173ffffffffffffffffffffffffffffffffffffffff021916908373ffffffffffffffffffffffffffffffffffffffff160217905550341561004f57600080fd5b604051602080611dc783398101604052808051906020019091905050807f50726f7879436f6e74726f6c6c65720000000000000000000000000000000000818181600160006101000a81548173ffffffffffffffffffffffffffffffffffffffff021916908373ffffffffffffffffffffffffffffffffffffffff16021790555080600281600019169055505050505050611cd8806100ef6000396000f300606060405260043610610112576000357c0100000000000000000000000000000000000000000000000000000000900463ffffffff1680630601640c14610117578063085d488314610183578063182569a4146101d85780631e374a83146102445780631ff5daf4146102d6578063360aa28b1461037a578063394a1fe9146103a757806354a6ff681461044b578063606e79741461047857806375d0c0dc1461051c5780637b388dc21461054d5780637f70952614610614578063beea9708146106c5578063beff90dc1461078c578063d3ed240e146107b9578063dec25c6f1461083e578063f1c248b1146108e2578063f32004d514610937578063f5f5ba72146109d7578063f9b2b19a14610a08575b600080fd5b341561012257600080fd5b61016d600480803573ffffffffffffffffffffffffffffffffffffffff1690602001909190803573ffffffffffffffffffffffffffffffffffffffff16906020019091905050610a5d565b6040518082815260200191505060405180910390f35b341561018e57600080fd5b610196610b25565b604051808273ffffffffffffffffffffffffffffffffffffffff1673ffffffffffffffffffffffffffffffffffffffff16815260200191505060405180910390f35b34156101e357600080fd5b61022e600480803573ffffffffffffffffffffffffffffffffffffffff1690602001909190803573ffffffffffffffffffffffffffffffffffffffff16906020019091905050610b4a565b6040518082815260200191505060405180910390f35b341561024f57600080fd5b6102d4600480803573ffffffffffffffffffffffffffffffffffffffff169060200190919080356000191690602001909190803590602001909190803590602001908201803590602001908080601f01602080910402602001604051908101604052809392919081815260200183838082843782019150505050505091905050610c12565b005b34156102e157600080fd5b610378600480803573ffffffffffffffffffffffffffffffffffffffff1690602001909190803573ffffffffffffffffffffffffffffffffffffffff1690602001909190803590602001909190803590602001908201803590602001908080601f01602080910402602001604051908101604052809392919081815260200183838082843782019150505050505091905050610d2f565b005b341561038557600080fd5b61038d610e70565b604051808215151515815260200191505060405180910390f35b34156103b257600080fd5b610449600480803573ffffffffffffffffffffffffffffffffffffffff1690602001909190803573ffffffffffffffffffffffffffffffffffffffff1690602001909190803590602001909190803590602001908201803590602001908080601f01602080910402602001604051908101604052809392919081815260200183838082843782019150505050505091905050610f69565b005b341561045657600080fd5b61045e6110aa565b604051808215151515815260200191505060405180910390f35b341561048357600080fd5b61051a600480803573ffffffffffffffffffffffffffffffffffffffff1690602001909190803573ffffffffffffffffffffffffffffffffffffffff1690602001909190803590602001909190803590602001908201803590602001908080601f016020809104026020016040519081016040528093929190818152602001838380828437820191505050505050919050506111a3565b005b341561052757600080fd5b61052f6112e4565b60405180826000191660001916815260200191505060405180910390f35b341561055857600080fd5b610612600480803573ffffffffffffffffffffffffffffffffffffffff1690602001909190803573ffffffffffffffffffffffffffffffffffffffff16906020019091908035600019169060200190919080356000191690602001909190803590602001909190803590602001909190803590602001908201803590602001908080601f016020809104026020016040519081016040528093929190818152602001838380828437820191505050505050919050506112ea565b005b341561061f57600080fd5b6106c3600480803573ffffffffffffffffffffffffffffffffffffffff1690602001909190803573ffffffffffffffffffffffffffffffffffffffff169060200190919080356000191690602001909190803590602001909190803590602001908201803590602001908080601f01602080910402602001604051908101604052809392919081815260200183838082843782019150505050505091905050611456565b005b34156106d057600080fd5b61078a600480803573ffffffffffffffffffffffffffffffffffffffff1690602001909190803573ffffffffffffffffffffffffffffffffffffffff16906020019091908035600019169060200190919080356000191690602001909190803590602001909190803590602001909190803590602001908201803590602001908080601f016020809104026020016040519081016040528093929190818152602001838380828437820191505050505050919050506115a8565b005b341561079757600080fd5b61079f611714565b604051808215151515815260200191505060405180910390f35b34156107c457600080fd5b61083c600480803573ffffffffffffffffffffffffffffffffffffffff1690602001909190803590602001909190803590602001908201803590602001908080601f01602080910402602001604051908101604052809392919081815260200183838082843782019150505050505091905050611906565b005b341561084957600080fd5b6108e0600480803573ffffffffffffffffffffffffffffffffffffffff1690602001909190803573ffffffffffffffffffffffffffffffffffffffff1690602001909190803590602001909190803590602001908201803590602001908080601f01602080910402602001604051908101604052809392919081815260200183838082843782019150505050505091905050611a12565b005b34156108ed57600080fd5b6108f5611b53565b604051808273ffffffffffffffffffffffffffffffffffffffff1673ffffffffffffffffffffffffffffffffffffffff16815260200191505060405180910390f35b341561094257600080fd5b6109a7600480803573ffffffffffffffffffffffffffffffffffffffff1690602001909190803573ffffffffffffffffffffffffffffffffffffffff169060200190919080356000191690602001909190803560001916906020019091905050611b79565b60405180841515151581526020018360001916600019168152602001828152602001935050505060405180910390f35b34156109e257600080fd5b6109ea611c78565b60405180826000191660001916815260200191505060405180910390f35b3415610a1357600080fd5b610a1b611c82565b604051808273ffffffffffffffffffffffffffffffffffffffff1673ffffffffffffffffffffffffffffffffffffffff16815260200191505060405180910390f35b60008273ffffffffffffffffffffffffffffffffffffffff16637ecebe00836000604051602001526040518263ffffffff167c0100000000000000000000000000000000000000000000000000000000028152600401808273ffffffffffffffffffffffffffffffffffffffff1673ffffffffffffffffffffffffffffffffffffffff168152602001915050602060405180830381600087803b1515610b0257600080fd5b6102c65a03f11515610b1357600080fd5b50505060405180519050905092915050565b6000809054906101000a900473ffffffffffffffffffffffffffffffffffffffff1681565b60008273ffffffffffffffffffffffffffffffffffffffff16637ecebe00836000604051602001526040518263ffffffff167c0100000000000000000000000000000000000000000000000000000000028152600401808273ffffffffffffffffffffffffffffffffffffffff1673ffffffffffffffffffffffffffffffffffffffff168152602001915050602060405180830381600087803b1515610bef57600080fd5b6102c65a03f11515610c0057600080fd5b50505060405180519050905092915050565b8373ffffffffffffffffffffffffffffffffffffffff1663fc1f0dfe8484846000604051602001526040518463ffffffff167c010000000000000000000000000000000000000000000000000000000002815260040180846000191660001916815260200183815260200180602001828103825283818151815260200191508051906020019080838360005b83811015610cb9578082015181840152602081019050610c9e565b50505050905090810190601f168015610ce65780820380516001836020036101000a031916815260200191505b50945050505050602060405180830381600087803b1515610d0657600080fd5b6102c65a03f11515610d1757600080fd5b505050604051805190501515610d2957fe5b50505050565b8373ffffffffffffffffffffffffffffffffffffffff1663caecea088484846000604051602001526040518463ffffffff167c0100000000000000000000000000000000000000000000000000000000028152600401808473ffffffffffffffffffffffffffffffffffffffff1673ffffffffffffffffffffffffffffffffffffffff16815260200183815260200180602001828103825283818151815260200191508051906020019080838360005b83811015610dfa578082015181840152602081019050610ddf565b50505050905090810190601f168015610e275780820380516001836020036101000a031916815260200191505b50945050505050602060405180830381600087803b1515610e4757600080fd5b6102c65a03f11515610e5857600080fd5b505050604051805190501515610e6a57fe5b50505050565b6000600160009054906101000a900473ffffffffffffffffffffffffffffffffffffffff1673ffffffffffffffffffffffffffffffffffffffff1663062af37d336002546000604051602001526040518363ffffffff167c0100000000000000000000000000000000000000000000000000000000028152600401808373ffffffffffffffffffffffffffffffffffffffff1673ffffffffffffffffffffffffffffffffffffffff168152602001826000191660001916815260200192505050602060405180830381600087803b1515610f4957600080fd5b6102c65a03f11515610f5a57600080fd5b50505060405180519050905090565b8373ffffffffffffffffffffffffffffffffffffffff1663ecacfcbd8484846000604051602001526040518463ffffffff167c0100000000000000000000000000000000000000000000000000000000028152600401808473ffffffffffffffffffffffffffffffffffffffff1673ffffffffffffffffffffffffffffffffffffffff16815260200183815260200180602001828103825283818151815260200191508051906020019080838360005b83811015611034578082015181840152602081019050611019565b50505050905090810190601f1680156110615780820380516001836020036101000a031916815260200191505b50945050505050602060405180830381600087803b151561108157600080fd5b6102c65a03f1151561109257600080fd5b5050506040518051905015156110a457fe5b50505050565b6000600160009054906101000a900473ffffffffffffffffffffffffffffffffffffffff1673ffffffffffffffffffffffffffffffffffffffff166320cad613336002546000604051602001526040518363ffffffff167c0100000000000000000000000000000000000000000000000000000000028152600401808373ffffffffffffffffffffffffffffffffffffffff1673ffffffffffffffffffffffffffffffffffffffff168152602001826000191660001916815260200192505050602060405180830381600087803b151561118357600080fd5b6102c65a03f1151561119457600080fd5b50505060405180519050905090565b8373ffffffffffffffffffffffffffffffffffffffff1663b93c8dba8484846000604051602001526040518463ffffffff167c0100000000000000000000000000000000000000000000000000000000028152600401808473ffffffffffffffffffffffffffffffffffffffff1673ffffffffffffffffffffffffffffffffffffffff16815260200183815260200180602001828103825283818151815260200191508051906020019080838360005b8381101561126e578082015181840152602081019050611253565b50505050905090810190601f16801561129b5780820380516001836020036101000a031916815260200191505b50945050505050602060405180830381600087803b15156112bb57600080fd5b6102c65a03f115156112cc57600080fd5b5050506040518051905015156112de57fe5b50505050565b60025481565b8673ffffffffffffffffffffffffffffffffffffffff1663cf9b88908787878787876000604051602001526040518763ffffffff167c0100000000000000000000000000000000000000000000000000000000028152600401808773ffffffffffffffffffffffffffffffffffffffff1673ffffffffffffffffffffffffffffffffffffffff1681526020018660001916600019168152602001856000191660001916815260200184815260200183815260200180602001828103825283818151815260200191508051906020019080838360005b838110156113da5780820151818401526020810190506113bf565b50505050905090810190601f1680156114075780820380516001836020036101000a031916815260200191505b50975050505050505050602060405180830381600087803b151561142a57600080fd5b6102c65a03f1151561143b57600080fd5b50505060405180519050151561144d57fe5b50505050505050565b8473ffffffffffffffffffffffffffffffffffffffff1663f3fb67c1858585856000604051602001526040518563ffffffff167c0100000000000000000000000000000000000000000000000000000000028152600401808573ffffffffffffffffffffffffffffffffffffffff1673ffffffffffffffffffffffffffffffffffffffff168152602001846000191660001916815260200183815260200180602001828103825283818151815260200191508051906020019080838360005b83811015611530578082015181840152602081019050611515565b50505050905090810190601f16801561155d5780820380516001836020036101000a031916815260200191505b5095505050505050602060405180830381600087803b151561157e57600080fd5b6102c65a03f1151561158f57600080fd5b5050506040518051905015156115a157fe5b5050505050565b8673ffffffffffffffffffffffffffffffffffffffff1663bc6ffd0b8787878787876000604051602001526040518763ffffffff167c0100000000000000000000000000000000000000000000000000000000028152600401808773ffffffffffffffffffffffffffffffffffffffff1673ffffffffffffffffffffffffffffffffffffffff1681526020018660001916600019168152602001856000191660001916815260200184815260200183815260200180602001828103825283818151815260200191508051906020019080838360005b8381101561169857808201518184015260208101905061167d565b50505050905090810190601f1680156116c55780820380516001836020036101000a031916815260200191505b50975050505050505050602060405180830381600087803b15156116e857600080fd5b6102c65a03f115156116f957600080fd5b50505060405180519050151561170b57fe5b50505050505050565b6000600160009054906101000a900473ffffffffffffffffffffffffffffffffffffffff1673ffffffffffffffffffffffffffffffffffffffff1663062af37d336002546000604051602001526040518363ffffffff167c0100000000000000000000000000000000000000000000000000000000028152600401808373ffffffffffffffffffffffffffffffffffffffff1673ffffffffffffffffffffffffffffffffffffffff168152602001826000191660001916815260200192505050602060405180830381600087803b15156117ed57600080fd5b6102c65a03f115156117fe57600080fd5b50505060405180519050806119015750600160009054906101000a900473ffffffffffffffffffffffffffffffffffffffff1673ffffffffffffffffffffffffffffffffffffffff166320cad613336002546000604051602001526040518363ffffffff167c0100000000000000000000000000000000000000000000000000000000028152600401808373ffffffffffffffffffffffffffffffffffffffff1673ffffffffffffffffffffffffffffffffffffffff168152602001826000191660001916815260200192505050602060405180830381600087803b15156118e557600080fd5b6102c65a03f115156118f657600080fd5b505050604051805190505b905090565b8273ffffffffffffffffffffffffffffffffffffffff166363bf24df83836000604051602001526040518363ffffffff167c01000000000000000000000000000000000000000000000000000000000281526004018083815260200180602001828103825283818151815260200191508051906020019080838360005b8381101561199e578082015181840152602081019050611983565b50505050905090810190601f1680156119cb5780820380516001836020036101000a031916815260200191505b509350505050602060405180830381600087803b15156119ea57600080fd5b6102c65a03f115156119fb57600080fd5b505050604051805190501515611a0d57fe5b505050565b8373ffffffffffffffffffffffffffffffffffffffff16634e4c0e2d8484846000604051602001526040518463ffffffff167c0100000000000000000000000000000000000000000000000000000000028152600401808473ffffffffffffffffffffffffffffffffffffffff1673ffffffffffffffffffffffffffffffffffffffff16815260200183815260200180602001828103825283818151815260200191508051906020019080838360005b83811015611add578082015181840152602081019050611ac2565b50505050905090810190601f168015611b0a5780820380516001836020036101000a031916815260200191505b50945050505050602060405180830381600087803b1515611b2a57600080fd5b6102c65a03f11515611b3b57600080fd5b505050604051805190501515611b4d57fe5b50505050565b600160009054906101000a900473ffffffffffffffffffffffffffffffffffffffff1681565b60008060008673ffffffffffffffffffffffffffffffffffffffff1663e1b120648787876000604051606001526040518463ffffffff167c0100000000000000000000000000000000000000000000000000000000028152600401808473ffffffffffffffffffffffffffffffffffffffff1673ffffffffffffffffffffffffffffffffffffffff168152602001836000191660001916815260200182600019166000191681526020019350505050606060405180830381600087803b1515611c4157600080fd5b6102c65a03f11515611c5257600080fd5b505050604051805190602001805190602001805190509250925092509450945094915050565b6000600254905090565b6000600160009054906101000a900473ffffffffffffffffffffffffffffffffffffffff169050905600a165627a7a7230582057e763a04f11865c09939cfacb6a7aedf4093ad146a852c9df5d7d22b059a21e0029",
  "source": "pragma solidity ^0.4.8;\n\nimport '../../gmo/contracts/VersionLogic.sol';\nimport './Organizations.sol';\nimport './PersonalInformations.sol';\n\ncontract ProxyControllerLogic_v1 is VersionLogic {\n    function ProxyControllerLogic_v1(ContractNameService _cns) VersionLogic (_cns, 'ProxyController') {}\n\n    function getNonceInOrganizations(address _organizationsAddress, address _addr) constant returns (uint) {\n        return Organizations(_organizationsAddress).nonces(_addr);\n    }\n\n    function createOrganization(address _organizationsAddress, bytes32 _organizationKey, uint _nonce, bytes _clientSign) {\n        assert(Organizations(_organizationsAddress).createOrganizationWithSign(_organizationKey, _nonce, _clientSign));\n    }\n\n    function changeOrganizationActivation(address _organizationsAddress, uint _nonce, bytes _clientSign) {\n        assert(Organizations(_organizationsAddress).changeActivationWithSign(_nonce, _clientSign));\n    }\n\n    function addOrganizationAdmin(address _organizationsAddress, address _addr, uint _nonce, bytes _clientSign) {\n        assert(Organizations(_organizationsAddress).addAdminWithSign(_addr, _nonce, _clientSign));\n    }\n\n    function removeOrganizationAdmin(address _organizationsAddress,  address _addr, uint _nonce, bytes _clientSign) {\n        assert(Organizations(_organizationsAddress).removeAdminWithSign(_addr, _nonce, _clientSign));\n    }\n\n    function addOrganizationMember(address _organizationsAddress, address _addr, uint _nonce, bytes _clientSign) {\n        assert(Organizations(_organizationsAddress).addMemberWithSign(_addr, _nonce, _clientSign));\n    }\n\n    function removeOrganizationMember(address _organizationsAddress, address _addr, uint _nonce, bytes _clientSign) {\n        assert(Organizations(_organizationsAddress).removeMemberWithSign(_addr, _nonce, _clientSign));\n    }\n\n    function getNonceInPersonalInformations(address _personalInformationsAddress, address _addr) constant returns (uint) {\n        return PersonalInformations(_personalInformationsAddress).nonces(_addr);\n    }\n\n    function createPersonalInformation(address _personalInformationsAddress, address _user, bytes32 _dataKey, bytes32 _dataHash, uint _expires, uint _nonce, bytes _clientSign) {\n        assert(PersonalInformations(_personalInformationsAddress).createWithSign(_user, _dataKey, _dataHash, _expires, _nonce, _clientSign));\n    }\n\n    function removePersonalInformation(address _personalInformationsAddress, address _user, bytes32 _dataKey, uint _nonce, bytes _clientSign) {\n        assert(PersonalInformations(_personalInformationsAddress).removeWithSign(_user, _dataKey, _nonce, _clientSign));\n    }\n\n    function updatePersonalInformation(address _personalInformationsAddress, address _user, bytes32 _dataKey, bytes32 _dataHash, uint _expires, uint _nonce, bytes _clientSign) {\n        assert(PersonalInformations(_personalInformationsAddress).updateWithSign(_user, _dataKey, _dataHash, _expires, _nonce, _clientSign));\n    }\n\n    function getPersonalInformation(address _personalInformationsAddress, address _addr, bytes32 _certificationBodyKey, bytes32 _dataKey) constant returns (bool, bytes32, uint) {\n        return PersonalInformations(_personalInformationsAddress).personalInformations(_addr, _certificationBodyKey, _dataKey);\n    }\n}\n",
  "sourcePath": "/home/shijinraj/ethereum/DIFA/oss-kyc/provider/contracts/ProxyControllerLogic_v1.sol",
  "compiler": {
    "name": "solc",
    "version": "0.4.18+commit.9cf6e910.Emscripten.clang"
  },
  "schemaVersion": "1.0.1",
  "updatedAt": "2017-12-15T14:30:33.509Z"
}